:020000040800F2
:10000000902B002045010008E5170008E7170008BD
:10001000EB170008EF170008F317000800000000B6
:10002000000000000000000000000000F7170008BA
:10003000F917000800000000FB170008FD17000872
:100040005F0100085F0100085F0100085F01000810
:100050005F0100085F0100085F0100085F01000800
:100060005F0100085F0100085F0100085F010008F0
:100070005F0100085F0100085F0100085F010008E0
:100080005F0100085F0100085F0100085F010008D0
:100090005F0100085F0100085F0100085F010008C0
:1000A0005F0100085F0100085F0100085F010008B0
:1000B0005F0100085F0100085F0100085F010008A0
:1000C0005F0100085F0100085F0100085F01000890
:1000D0005F0100085F0100085F0100085F01000880
:1000E0005F0100085F0100085F0100085F01000870
:1000F0005F0100085F0100085F0100085F01000860
:100100005F010008FF1700085F0100085F01000899
:100110005F0100085F0100085F0100085F0100083F
:100120005F0100085F0100085F0100085F0100082F
:10013000DFF80CD006F0FEF8004800475513000821
:10014000902B00200648804706480047FEE7FEE760
:10015000FEE7FEE7FEE7FEE7FEE7FEE7FEE7FEE777
:1001600047020008310100080CB500200190009002
:100170006C48006840F480306A49086000BF6948F4
:10018000006800F4003000900198401C0190009835
:1001900018B90198B0F5A06FF1D16248006800F479
:1001A000003010B10120009001E000200090009884
:1001B000012843D15C48006840F010005A490860AB
:1001C0000846006820F0030008600846006840F018
:1001D0000200086053484068524948600846406839
:1001E00048600846406840F48060486008464068BF
:1001F00020F47C1048600846406840F4E8104860ED
:100200000846006840F08070086000BF45480068FC
:1002100000F000700028F9D04248406820F0030048
:10022000404948600846406840F00200486000BF0E
:100230003C48406800F00C000828F9D10CBD10B50E
:10024000FFF792FF10BD10B53648006840F001007E
:1002500034490860084640683449084031494860DC
:1002600008460068324908402E4908600846006880
:1002700020F4802008600846406820F4FE004860B2
:100280004FF41F008860FFF7DAFF4FF00060294944
:10029000086010BD10B5002100200022214B5B68D2
:1002A00003F00C0121B1042906D0082928D107E068
:1002B000214B224C236027E01F4B204C236023E07E
:1002C000184B5B6803F47010164B5B6803F48032C4
:1002D000022303EB904022B9194B4343174C236090
:1002E0000DE0104B5B6803F4003323B1144B434320
:1002F000124C236003E0104B4343104C236003E097
:100300000D4B0E4C236000BF00BF064B5B68C3F370
:1003100003130C4CE15C094B1B68CB40074C23607A
:1003200010BD000000100240002002400000FFF855
:10033000FFFFF6FE08ED00E000127A00000000204A
:1003400000093D000400002031490143314A116099
:10035000704770B5002100230F22C47804B32D4CE0
:10036000246804F4E064C4F5E064210AC1F10403E4
:10037000CA40447804FA03F1847814402143090107
:10038000254C0678A155047804F01F050124AC40E3
:1003900005786D11AD0005F1E025C5F8004109E0D3
:1003A000047804F01F050124AC401C4D067876113A
:1003B00045F8264070BD1A4A0A400243154B1B1FE0
:1003C0001A60704739B1134A121D12680243114B6B
:1003D0001B1D1A6006E00F4A121D126882430D4B66
:1003E0001B1D1A607047042808D14FF0E0210969ED
:1003F00041F004014FF0E022116107E04FF0E021ED
:10040000096921F004014FF0E022116170470000FA
:100410000000FA050CED00E000E400E080E100E0FF
:1004200080FFFF1F01684FF6FE721140016000213E
:10043000016041608160C1608D49884208D18C496A
:100440000839496841F00F01894A083A51608AE049
:1004500087491431884208D185490839496841F0F3
:10046000F001834A083A51607DE081492831884291
:1004700008D17F490839496841F470617C4A083ADB
:10048000516070E07A493C31884208D17849083996
:10049000496841F47041764A083A516063E0744912
:1004A0005031884208D172490839496841F47021B5
:1004B0006F4A083A516056E06D496431884208D16C
:1004C0006B490839496841F47001694A083A51603A
:1004D00049E067497831884208D165490839496857
:1004E00041F07061624A083A51603CE061498842DB
:1004F00006D1011F096841F00F01021F116032E0AF
:100500005C491431884208D15A49091F096841F0F1
:10051000F001584A121F116025E0564928318842DF
:1005200008D15449091F096841F47061514A121FEA
:10053000116018E04F493C31884208D14D49091FEC
:10054000096841F470414B4A121F11600BE04949A0
:100550005031884207D14749091F096841F4702189
:10056000444A121F1160704710B50022026847F616
:10057000F0739A430C6A8B6823430C6923434C69DC
:1005800023438C692343CC6923434C6A23438C6AFD
:1005900023431A430260CB6843600B6883604B6857
:1005A000C36010BD0021016041608160C1600161D4
:1005B00041618161C161016241628162704721B123
:1005C000026842F00102026004E002684FF6FE7326
:1005D0001A40026070471AB103680B43036002E0DF
:1005E00003688B4303607047416070470146486869
:1005F00080B2704701460020002201F080531BB1F9
:100600001C4B083B1A6802E0194B083B1A6802EAC7
:1006100001030BB1012000E00020704700F0805181
:1006200019B11449091F086002E0114908394860EE
:10063000704701460020002201F080531BB10D4B92
:10064000083B1A6802E00A4B083B1A6802EA0103F9
:100650000BB1012000E00020704700F0805119B17B
:100660000449091F086002E00149083948607047E1
:10067000080002400804024010B50446CC488442F9
:1006800008D10121042000F02DFB0021042000F0FE
:1006900029FB46E0C748844208D10121082000F028
:1006A00021FB0021082000F01DFB3AE0C2488442F3
:1006B00008D10121102000F015FB0021102000F0CE
:1006C00011FB2EE0BD48844208D10121202000F01A
:1006D00009FB0021202000F005FB22E0B8488442FD
:1006E00008D10121402000F0FDFA0021402000F057
:1006F000F9FA16E0B348844208D10121802000F0C5
:10070000F1FA0021802000F0EDFA0AE0AE488442C0
:1007100007D10121801500F0E5FA0021A01500F0B5
:10072000E1FA10BD10B50121084600F0DBFA002106
:10073000012000F0D7FA10BD2DE9F0410246002556
:100740000026002000230024002791F803C00CF0AD
:100750000F0591F803C00CF0100CBCF1000F03D092
:1007600091F802C04CEA050591F800C0BCF1000FF9
:1007700031D0146800202BE04FF0010C0CFA00F38C
:10078000B1F800C00CEA03069E4220D183004FF06E
:100790000F0C0CFA03F7BC4305FA03FC4CEA040403
:1007A00091F803C0BCF1280F06D14FF0010C0CFAF0
:1007B00000FCC2F814C00AE091F803C0BCF1480F75
:1007C00005D14FF0010C0CFA00FCC2F810C0401C1F
:1007D0000828D1D31460B1F800C0BCF1FF0F34DD9C
:1007E000546800202EE000F1080C4FF0010808FAD0
:1007F0000CF3B1F800C00CEA03069E4221D183003D
:100800004FF00F0C0CFA03F7BC4305FA03FC4CEA5B
:10081000040491F803C0BCF1280F05D100F1080CC5
:1008200008FA0CF8C2F8148091F803C0BCF1480F24
:1008300007D100F1080C4FF0010808FA0CF8C2F8D3
:100840001080401C0828CED35460BDE8F0814FF6DC
:10085000FF710180022181700421C170704702463E
:10086000002093680B400BB1012000E0002070478E
:100870000146886880B2704702460020D3680B406A
:100880000BB1012000E0002070470146C86880B22B
:10089000704701617047416170470AB1016100E032
:1008A00041617047C16070474FF480320A438261F2
:1008B0008161826182698269704702460020434BF0
:1008C00018684FF68073184040EA021008433F4B07
:1008D000186070473E49C8617047F0B50A4600236A
:1008E00000240021002500F00046B6F1004F02D19F
:1008F000364EF16901E0354E7168C0F3034583B2AD
:1009000000F44016B6F5401F08D121F070612F4E5B
:10091000766826F070662D4F7E6012E000F4801637
:10092000B6F5801F06D1032606FA05F4A14341F06F
:10093000706106E0460D360103FA06F6B14341F058
:10094000706122B1460D360103FA06F6314300F01C
:100950000046B6F1004F02D11C4EF16101E01B4E82
:100960007160F0BD30B500228B071C0F0F2303FA16
:1009700004F2164B08338C1053F824309343134C75
:1009800008348D1044F8253023468C1053F8243059
:100990008C07240F00FA04F423430C4C08348D1008
:1009A00044F8253030BD0A49DC310860704700004A
:1009B00000080140000C01400010014000140140FB
:1009C00000180140001C01400020014000000140CF
:1009D00000002042DF48006840F00100DD49086067
:1009E00008464068DC490840DA4948600846006823
:1009F000DA490840D74908600846006820F480209A
:100A000008600846406820F4FE0048604FF41F006C
:100A100088607047CF49096821F48031CD4A116060
:100A20001146096821F480211160B0F5803F03D0A0
:100A3000B0F5802F0ED106E0C649096841F4803137
:100A4000C44A116007E0C349096841F4A021C14AC2
:100A5000116000E000BF00BF704710B501460022E2
:100A6000002300204A11012A02D1BA4C236806E073
:100A7000022A02D1B74C236A01E0B64C636A01F046
:100A80001F02012494401C400CB1012000E0002012
:100A900010BD38B5002000900024002500BF312093
:100AA000FFF7DBFF05460098401C00900098B0F56A
:100AB000A06F01D0002DF2D03120FFF7CEFF08B19A
:100AC000012400E00024204638BD01460020A14A50
:100AD000106820F0F80040EAC10010607047A0499B
:100AE00008607047024600209A4B586820F47C103A
:100AF00042EA01031843974B5860704798490866CB
:100B0000704701460020934A506820F003000843D4
:100B1000506070478F48406800F00C0070470146F5
:100B200000208C4A506820F0F00008435060704765
:100B300001460020874A506820F4E0600843506076
:100B4000704701460020834A506820F4605040EA14
:100B5000C1005060704729B17E4A527A02437D4BF2
:100B60005A7204E07B4A527A82437A4B5A72704737
:100B70007B49D8310860704701460020754A5068AB
:100B800020F440400843506070470021714A2032F1
:100B90001170704A82F82010012802D004280AD16E
:100BA00004E001216B4A2032117005E00521694AF9
:100BB0002032117000E000BF00BF70476949086033
:100BC00070476449096A0143624A11627047654986
:100BD00044390860704730B500210022002400230A
:100BE0005C4D6D6805F00C0121B1042905D0082980
:100BF00023D105E05C4D056022E05B4D05601FE000
:100C0000544D6D6805F47012524D6D6805F48034D2
:100C1000022505EB92421CB9544D554305600BE08B
:100C20004C4D6D6805F400351DB1504D55430560C0
:100C300002E04D4D5543056002E04B4D056000BF9D
:100C400000BF444D6D6805F0F0010909484D6B5C2B
:100C50000568DD4045603F4D6D6805F4E061090AB7
:100C6000434D6B5C4568DD4085603A4D6D6805F429
:100C70006051C90A3E4D6B5C4568DD40C560354D2D
:100C80006D6805F44041890B3A4D6B5CC568B5FB56
:100C9000F3F5056130BD29B12E4A526902432D4B4F
:100CA0005A6104E02B4A526982432A4B5A617047C9
:100CB00029B1284A92690243264B9A6104E0254AE9
:100CC00092698243234B9A61704729B1214AD269C4
:100CD0000243204BDA6104E01E4AD26982431D4B75
:100CE000DA61704729B11B4AD2680243194BDA60B6
:100CF00004E0184AD2688243164BDA60704729B183
:100D0000144A12690243134B1A6104E0114A126932
:100D10008243104B1A61704712494039086070478E
:100D20000F49C86470470B49C87170470948406A49
:100D300040F0807007494862704701460020054A2C
:100D400092680A400AB1012000E000207047014982
:100D500088727047001002400000FFF8FFFFF6FEA7
:100D6000000042428004424200127A0000093D0025
:100D7000140000202400002000206F490860486013
:100D80008860C86048628862C8626C4888630020D6
:100D9000C86370470021684A516847F6FF62914373
:100DA000027D83681A4343681A43C3681A43036881
:100DB0001A4303691A4311435F4A51607047002187
:100DC0000175016041608160C160016170475C49EB
:100DD000086070475849096821F00301564A1160BC
:100DE000114609680143116070475348006800F0DC
:100DF0000300704729B1504AD26B02434E4BDA636D
:100E000004E04D4AD26B82434B4BDA6370474D4945
:100E1000086070470021484B02689A601A46D16802
:100E20006FF30A01D0E901231A43C3681A43036927
:100E30001A431143404AD16070470021016041606C
:100E40008160C160016170473B480069C0B2704772
:100E500008B501460020009037481430084400903F
:100E60000098006808BD0021334B02685A6242684E
:100E70009A621A46D16A21F0F701D0E902231A4397
:100E800003691A4343691A4311432B4AD1627047DD
:100E90004FF0FF310160002141608160C16001615C
:100EA000416170472448006B7047234880300068D8
:100EB000704721498031086070471F48806C704737
:100EC00020491431086070471E4918310860704786
:100ED0001C491C31086070471A492031086070476E
:100EE0001949086070471849091D086070470121B9
:100EF0008143154A08321160704713490C3108606C
:100F00007047014600200C4A526B0A400AB101208A
:100F100000E00020704708498863704701460020C0
:100F2000054A526B0A400AB1012000E000207047D8
:100F3000014988637047000000800140FF07C0003E
:100F4000A00030428C053042AC01304210B504465E
:100F5000FB48844209D101218803FFF7C3FE002129
:100F60004FF48040FFF7BEFE32E0F648844209D1DC
:100F700001214804FFF7C3FE00214FF40030FFF7C2
:100F8000BEFE25E0F048844209D101218804FFF724
:100F9000B6FE00214FF48020FFF7B1FE18E0EB48C9
:100FA000844209D10121C804FFF7A9FE00214FF4B2
:100FB0000020FFF7A4FE0BE0E548844208D10121A0
:100FC0000805FFF79CFE00214FF48010FFF797FE05
:100FD00010BD2DE9F04786B005460E460024A24616
:100FE00000BFA1460027B08900B100BF2F462C8A60
:100FF0004CF6FF700440F08804432C82AC894EF616
:10100000F3100440B08831890843718908430443D0
:10101000AC81AC8A4FF6FF400440B0890443AC82F7
:1010200001A8FFF7D8FDC648874202D1DDF810A01D
:1010300001E0DDF80CA0A88900F4004040B10AEB03
:10104000CA0000EB0A1031684900B0FBF1F807E074
:101050000AEBCA0000EB0A1031688900B0FBF1F816
:101060006420B8FBF0F004012009642101FB108921
:10107000A88900F4004040B1322000EBC900B0FB69
:10108000F1F000F00700044308E0322000EB091003
:101090006421B0FBF1F000F00F0004432C8106B096
:1010A000BDE8F0874FF41651016000218180C180B6
:1010B00001810C21418100218181704710B50246D8
:1010C0000020108A4FF2FF0318400B884C882343FE
:1010D0008C882343CC8823431843108210BD002101
:1010E000018041808180C180704721B1828942F4B2
:1010F0000052828104E082894DF6FF731A4082819A
:101100007047F0B50346002400260025002040F675
:101110006A17B94200D100BF1846C1F3421401F06A
:101120001F06012707FA06F5012C01D10C3004E057
:10113000022C01D1103000E014301AB107682F439F
:10114000076002E00768AF430760F0BD1AB1838A09
:101150000B43838202E0838A8B4383827047028A37
:101160004FF6F0731A400282028A0A4302827047E5
:1011700082894FF2FF731A40828182890A438281F9
:10118000704721B1828942F00202828104E08289A3
:101190004FF6FD731A4082817047028A4FF6DF7363
:1011A0001A400282028A0A430282704721B1028AEF
:1011B00042F48042028204E0028A4BF6FF731A4036
:1011C00002827047C1F30802828070470146888816
:1011D000C0F308007047818941F0010181817047A7
:1011E000028BD2B20283028B42EA01220283704751
:1011F000028B02F47F420283028B0A430283704710
:1012000021B1828A42F02002828204E0828A4FF673
:10121000DF731A408282704721B1828A42F0100245
:10122000828204E0828A4FF6EF731A40828270470E
:1012300021B1828A42F00802828204E0828A4FF65B
:10124000F7731A408282704721B1828942F40042CA
:10125000828103E08289C2F30E028281704721B14C
:10126000828A42F40062828204E0828A4FF2FF7333
:101270001A4082827047828A4FF6FB731A4082823C
:10128000828A0A438282704721B1828A42F0020236
:10129000828204E0828A4FF6FD731A408282704790
:1012A00002460020B1F5007F00D100BF13880B403B
:1012B0000BB1012000E00020704701F40072B2F58C
:1012C000007F00D100BFCA430280704770B502465C
:1012D000002400230025002040F66A16B14200D108
:1012E00000BFC1F3421501F01F03012606FA03F304
:1012F000012D02D19689334006E0022D02D1168AD3
:10130000334001E0968A33400C12012606FA04F4B9
:101310001688344013B10CB1012000E0002070BDEC
:1013200010B50022002340F66A14A14200D100BF8C
:101330000A1201249440A3B2DC43048010BD0000D3
:10134000003801400044004000480040004C00408C
:101350000050004000F058FA202071490860012038
:1013600008600220091D086000F07EFA6DA004F0FC
:10137000F3FF012277A1784803F098FA77490870C3
:10138000084600780D282CD175A004F0E5FF002256
:10139000114670A004F0F3F970490870084600780F
:1013A00088B97AA004F0D8FF01226AA1002003F0D6
:1013B0007DFA6A490870012266A1674803F076FA4F
:1013C0006649087020E020205549091D0860012069
:1013D000091F08600220086075A004F0BDFF00BF6F
:1013E000FEE75E48007860B15C48017875A004F0C3
:1013F000B3FF7EA004F0B0FF864804F0ADFF00BF4D
:10140000FEE785A004F0A8FF8DA004F0A5FF0A2246
:1014100098A19B4803F075FA504908700846007877
:10142000002820D1974804F097FF974B1622974940
:10143000934803F015FC494908700846007848B9FC
:101440009148016892A004F087FF90499BA004F0A6
:1014500083FF04E041480178A0A004F07DFF8848A4
:1014600003F05CFD0DE020202D49091D08600120DE
:10147000091F086002200860384801789FA004F026
:101480006BFFA5A004F068FF01227AA17C4803F05D
:1014900038FA3249087008460078002827D1202001
:1014A0001F4908600120091D08600220091F08600B
:1014B000A5A004F051FF744B4FF48062A749704817
:1014C00003F0DCFA254908700846007848B96E48F0
:1014D0000168A3A004F040FFA049AAA004F03CFFCB
:1014E00013E01E480178AFA004F036FF0DE0202085
:1014F0000B49091D08600120091F086002200860CF
:1015000016480178ADA004F027FF5D4803F006FD02
:10151000012210A1002003F0C9F900BFFEE700007E
:10152000100C01400D0A0D0A0D0A2A2A2A2A2A2A1D
:1015300020D5E2CAC7D2BBB8F65344BFA8CEC4BCBC
:10154000FECFB5CDB3CAB5D1E9202A2A2A2A2A2A44
:101550000D0A0000303A00006C0000202800002036
:101560003E3E3E464C415348BBB9C3BBD3D0CEC42C
:10157000BCFECFB5CDB3A3ACBCB4BDABBDF8D0D031
:10158000B8F1CABDBBAF2E2E2E0D0A003E3E3E4620
:101590004C415348D2D1B3C9B9A6B8F1CABDBBAF0B
:1015A000CEC4BCFECFB5CDB3A1A30D0A0000000090
:1015B0003E3E3EB8F1CABDBBAFCAA7B0DCA1A30D89
:1015C0000A000000A3A1A3A1CDE2B2BF466C6173E3
:1015D00068B9D2D4D8CEC4BCFECFB5CDB3CAA7B0FB
:1015E000DCA1A3282564290D0A000000A3A1A3A162
:1015F000BFC9C4DCD4ADD2F2A3BA53504920466C63
:10160000617368B3F5CABCBBAFB2BBB3C9B9A6A11D
:10161000A30D0A001C6F00083E3E3ECEC4BCFECFA8
:10162000B5CDB3B9D2D4D8B3C9B9A6A3ACBFC9D2CA
:10163000D4BDF8D0D0B6C1D0B4B2E2CAD40D0A003D
:101640000D0A3E3E3E526561647920746F20636FDF
:101650006E647563742066696C6520777269746561
:1016600020746573742E2E2E202A2A2A2A2A2A0DE7
:101670000A000000303A746573742E7478740000A8
:101680009C100020C46E00082C00002030000020B8
:101690003E3E3E665F777269746528293A2053554D
:1016A00043434553532C20D0B4C8EBD7D6BDDA20E2
:1016B00064617461A3BA25640A0000003E3E3ECF17
:1016C000F2CEC4BCFED0B4C8EBB5C4CAFDBEDDCEFC
:1016D000AAA3BA0D0A25730D0A00000021212120BA
:1016E000665F777269746528293A204641494C45FE
:1016F000443A20282564290D0A00000021212120D8
:10170000666F70656E28293A204641494C45443A37
:1017100020282564290D0A003E3E3E526561647909
:1017200020746F20636F6E647563742066696C65E6
:10173000207265616420746573742E2E2E202A2A0F
:101740002A2A2A2A0D0A00003E3E3EB4F2BFAACE43
:10175000C4BCFEB3C9B9A6A1A30D0A00C0200020D5
:101760003E3E3ECEC4BCFEB6C1C8A1B3C9B9A62C8C
:10177000B6C1B5BDD7D6BDDACAFDBEDDA3BA2564F4
:101780000D0A00003E3E3EB6C1C8A1B5C3B5C4CEE9
:10179000C4BCFECAFDBEDDCEAAA3BA0D0A257320C5
:1017A0000D0A000021212120CEC4BCFEB6C1C8A173
:1017B000CAA7B0DCA3BA282564290A003E3E3E2110
:1017C0002121204F70656E696E6720746865206600
:1017D000696C653A204641494C45443A20282564C5
:1017E000290D0A00704700BFFEE700BFFEE700BFFB
:1017F000FEE700BFFEE7704770477047704710B5BF
:1018000001F0D1FB10BD000008B501210820FFF751
:101810004FFA2020ADF8000010208DF803000320BF
:101820008DF8020069460F48FEF786FF0120ADF8EB
:10183000000069460B48FEF77FFF0220ADF800006C
:1018400069460848FEF778FF20210648FFF721F88F
:1018500001210448FFF71DF802210248FFF719F89B
:1018600008BD0000000C014000B585B00121042036
:10187000FFF71EFA01218803FFF71AFA4FF40070F0
:10188000ADF8100018208DF8130003208DF8120019
:1018900004A92248FEF750FF4FF48060ADF8100015
:1018A00004208DF8130004A91C48FEF745FF4FF4EF
:1018B000E13000900020ADF80400ADF80600ADF86E
:1018C0000800ADF80C000C20ADF80A006946144879
:1018D000FFF77FFB01211248FFF707FC05B000BDB1
:1018E00070B504460D46E1B20D48FFF76BFC00BF32
:1018F00080210B48FFF7D4FC0028F9D0204670BDAA
:1019000010B5044600BF20210548FFF7C9FC002898
:10191000F9D00348FFF75AFC10BD00000008014051
:101920000038014008B50020FFF751FA0020FFF70A
:1019300051FAFFF721FA00214FF48060FFF7ABF96D
:101940004FF4F850ADF8000004208DF8030069460C
:10195000FC48FEF7F1FE0420ADF800006946FA48A5
:10196000FEF7EAFE08BD08B54FF4C060FEF7ECFCD8
:1019700031208DF8000000208DF801008DF8020064
:1019800001208DF803006846FEF7E3FC08BD10B5A2
:10199000EE48FEF72FFE10BD30B58BB005460C4665
:1019A000EB48FEF73BFE0021EA48FEF708FEEA4856
:1019B0000090019500200290A00803900020049060
:1019C00080200590800006908000079000200890FD
:1019D0004FF40050099000200A906946DD48FEF758
:1019E000C3FD0121DB48FEF7EAFD0BB030BD30B589
:1019F0008BB005460C46D648FEF710FE0021D548B0
:101A0000FEF7DDFDD4480090019510200290A0085B
:101A100003900020049080200590800006908000B4
:101A20000790002008904FF40050099000200A9081
:101A30006946C848FEF798FD0121C648FEF7BFFD7C
:101A40000BB030BD08B501213020FFF731F94FF45C
:101A5000F850ADF8000003208DF8020018208DF832
:101A600003006946B748FEF767FE0420ADF80000A2
:101A70006946B548FEF760FE01218802FFF70BF9C1
:101A800001210220FFF707F908BD014600BFB24857
:101A90008038406B00F045000028F8D040F2FF503D
:101AA000AD4A803A90631046406908221040C0B2A7
:101AB00070472DE9FC4107460D4600260024002012
:101AC000009001900820A54908601020486040203F
:101AD00088600020C8604FF4806008610846FFF706
:101AE00099F91020FFF7D1FF044614B12046BDE854
:101AF000FC819B48008800049849086037204860B2
:101B0000402088600020C8604FF48060086108466B
:101B1000FFF780F93720FFF7B8FF04460CB12046E5
:101B2000E5E74FF0FF308F4908600820486030201B
:101B300088600220C86000200861012048610846D2
:101B4000FFF791F900208549086033204860402064
:101B500088600020C8604FF4806008610846FFF785
:101B600059F93320FFF791FF04460CB12046BEE738
:101B70000CE04FF40010FFF7C4F938B1FFF795F906
:101B80004DF82600761C012E00D907E072488038F7
:101B9000406B40F22A6108400028EAD000BF0820CC
:101BA000FFF7AFF928B10820FFF7B5F90424204664
:101BB0009DE70220FFF7A5F928B10220FFF7ABF956
:101BC0000224204693E72020FFF79BF928B120202C
:101BD000FFF7A1F90624204689E74FF40070FFF7CC
:101BE00090F930B14FF40070FFF795F907242046C3
:101BF0007DE740F2FF50FFF78EF90098000600994C
:101C000001F47F4140EA0120009901F47F0140EA9C
:101C10001120009940EA116068600198000601995E
:101C200001F47F4140EA0120019901F47F0140EA7B
:101C30001120019940EA11602860204657E77CB5E1
:101C400005460024002000900190FFF701F900F004
:101C5000007010B10E2420467CBD4149098888B22D
:101C60006946FFF726FF04460CB12046F4E7012D34
:101C700036D1019800F4802000282ED03848008802
:101C80000004364908603720486040208860002002
:101C9000C860A80208610846FFF7BCF83720FFF7C4
:101CA000F4FE04460CB12046D6E702202B4908601A
:101CB00006204860402088600020C8604FF48060A3
:101CC00008610846FFF7A6F80620FFF7DEFE044687
:101CD0000CB12046C0E72046BEE725242046BBE7DE
:101CE000019800F48030F8B31D48008800041B49B7
:101CF000086037204860402088600020C8604FF4AA
:101D0000806008610846FFF785F83720FFF7BDFEC1
:101D100004460CB120469FE70020104908600620C9
:101D20004860402088600020C8604FF480600861EF
:101D30000846FFF76FF80620FFF7A7FE0446A4B198
:101D4000204689E7001001400014014000200010E7
:101D500000F0001044040240808001406025002013
:101D60004C0000207425002001E0204674E7252463
:101D7000204671E770B504460025FA48006803283C
:101D800002D12725284670BDF648006838B1F548CD
:101D90000068012803D0F348006802282ED1B4F56A
:101DA000805F02D127252846EDE7B4F5006F14D1F6
:101DB0000120FFF744FF054605BB0120EA490875ED
:101DC00000200860486088604FF40060C860002010
:101DD00008610846FEF7DEFF10E00020FFF72FFF46
:101DE00005465DB90120E04908750020086048609B
:101DF0008860C86008610846FEF7CCFF2846C2E745
:101E000070B504460025D94804600720D7494860CA
:101E1000402088600020C8604FF480600861084658
:101E2000FEF7F8FF0720FFF730FE0546284670BD95
:101E3000F0B5014600200022CA4B1B7881F85630CD
:101E4000CB4B1B88A1F85430CA4B1B681A0E930960
:101E50000B70C2F383034B7002F003038B70C54B0E
:101E60001B68C3F30742CA70C24B1B88C3F3072227
:101E70000A71C04B1A784A715B681A0E1301CB8045
:101E8000BC4B5B68C3F30742CB8843EA1213CB8099
:101E900002F00F030B72B74B9B88C3F30722D309E1
:101EA0004B72C2F380138B72C2F34013CB72C2F336
:101EB00000130B7300234B73AA4B1B681BB1A94B78
:101EC0001B68012B4FD193071B0D0B61A94B1A798E
:101ED0000B6943EA82030B61A64B9B681A0E0B69E0
:101EE00043EA92130B61C2F3C2030B7502F00703BE
:101EF0004B75A04B9B68C3F3074253098B75C2F324
:101F00008203CB7593075B0F0B769A4B1B89C3F348
:101F100007220B7E43EAD2130B760B695B1C00246D
:101F2000C1E912340B7ED1E912649B1C012505FA2C
:101F300003F3DF17A6FB035C04FB03C306FB0733B5
:101F4000C1E912530C7A0123A3400B650027D1E9A4
:101F500012560B6DA5FB034C06FB03C305FB0733B1
:101F6000C1E912432DE07F4B1B68022B29D1814B25
:101F70001A7993069B0A0B617E4B9B681A0E0B69BC
:101F800043EA02230B617B4B9B68C3F307420B6957
:101F900013430B61774B1B89C3F307220B695B1C4F
:101FA0004FF40074A3FB04344FF480660025A3FBB8
:101FB000067C04FB06C403FB0543C1E912737310DE
:101FC0000B65C2F3801301F8193F93065B0E4B704B
:101FD000684B1A7A4B7843EAD2134B7002F07F03B6
:101FE0008B70644BDB681A0ED309CB70C2F34113BC
:101FF0000B71C2F382034B7193071B0F8B715D4B07
:10200000DB68C3F307428B7943EA92138B71C2F307
:102010004013CB7100230B7202F001034B72554B3E
:102020009B89C3F30722D3098B72C2F38013CB724F
:10203000C2F340130B73C2F300134B73C2F381035B
:102040008B7302F00303CB734A4B1A7B53080B7458
:1020500001234B74484B1B681A0ECA741939464B3E
:102060001B68C3F307421402CC85434B1B88C3F3A0
:102070000722CB8D1343CB853F4B1A7814060C6394
:102080005B681A0E0B6B43EA02440C633A4B5B68C5
:10209000C3F307420B6B43EA02240C63364B9B8865
:1020A000C3F307220B6B13430B63334B1A793423AF
:1020B0005A54314B9B681A0E35235A542E4B9B6849
:1020C000C3F3074214068C632B4B1B89C3F307220F
:1020D0008B6B43EA02448C63274B1A7A8B6B43EA7F
:1020E00002248C63244BDB681A0E8B6B13438B63C7
:1020F000214BDB68C3F307423C235B5C43EA1214C9
:102100003C235C5413071C0DCC871B4B9B89C3F3EA
:102110000722CB8F1343CB87174B1A7B54084023DE
:102120005C54012441235C54F0BD70B50025134874
:10213000446B01E01148446B04F045000028F9D0DD
:1021400004F0040028B103250420FEF7E4FE28462D
:1021500070BD04F0010098B101250120FEF7DBFEFF
:102160002846F5E74800002048250020602500208B
:102170004C000020C0240020D0240020008001401A
:1021800040F2FF50FEF7C7FE2846E1E72DE9F04197
:1021900006460F464FF00008FA48456B01E0F94843
:1021A000456B05F045000028F9D005F0040038B172
:1021B0004FF003080420FEF7AEFE4046BDE8F08174
:1021C00005F0010030B14FF001080120FEF7A3FE39
:1021D0004046F3E7FEF738FEB04203D04FF0100858
:1021E0004046EBE740F2FF50FEF795FE0020FEF779
:1021F0002FFE044604F4604018B9200C3880404695
:10220000DCE704F4005008B11320D7E704F4804061
:1022100008B11020D2E704F4004008B10F20CDE748
:102220004046CBE738B5002401200090FEF7DDFDE5
:1022300010B92524204638BDD3480068042828D08A
:102240000020D249086002204860C0208860002039
:10225000C8604FF4806008610846FEF7DBFDFFF7B9
:1022600064FF04460CB12046E5E70020FEF7F0FDD0
:10227000C74908600420FEF7EBFDC5494860082007
:10228000FEF7E6FDC24988600C20FEF7E1FDC0497B
:10229000C860BD48006858B1BB480068012807D035
:1022A000B9480068062803D0B7480068022816D14C
:1022B0000020B64908600320486040208860002064
:1022C000C8604FF4806008610846FEF7A3FD6946C8
:1022D0000320FFF75BFF04460CB12046ABE7AA489A
:1022E000006804282ED0BDF80000AA490860BDF897
:1022F00000000004A549086009204860C0208860EB
:102300000020C8604FF4806008610846FEF782FD37
:10231000FFF70BFF04460CB120468CE70020FEF7C8
:1023200097FD9D4908600420FEF792FD9A49486098
:102330000820FEF78DFD984988600C20FEF788FD87
:102340009549C8600024204675E770B500258D4882
:10235000446B01E08B48446B04F045000028F9D041
:1023600004F0040028B103250420FEF7D4FD28461C
:1023700070BD40F2FF50FEF7CEFD2846F8E770B57D
:1023800000264FF480357F48446B02E06D1E7D4887
:10239000446B04F0450008B9002DF7D115B104F0E5
:1023A000040028B103260420FEF7B5FD304670BDB9
:1023B00004F0400028B100264020FEF7ACFD304676
:1023C000F5E73046F3E770B500254FF4803400E0C0
:1023D000641E24B18020FEF794FD0028F8D014B9C3
:1023E0000325284670BD40F2FF50FEF794FD2846B5
:1023F000F8E72DE9F0410024002600250027A0463B
:10240000B220664908750020086048608860C8608E
:1024100008610846FEF7BEFC0320FEF7DBFC012046
:10242000FEF7D5FC00205949086048608860C86004
:102430004FF4806008610846FEF7ECFCFFF7C3FF2D
:10244000044614B12046BDE8F0814FF4D5704F49E1
:10245000086008204860402088600020C8604FF471
:10246000806008610846FEF7D5FCFFF788FF044648
:102470002CB90120444908604FF0804812E0002048
:102480004249086037204860402088600020C860CA
:102490004FF4806008610846FEF7BCFC3720FFF768
:1024A000F4FA04460020394908603720486040208B
:1024B00088600020C8604FF4806008610846FEF71D
:1024C000A9FC3720FFF7E1FA0446002C4AD136E098
:1024D00000202E4908603720486040208860002096
:1024E000C8604FF4806008610846FEF793FC37200F
:1024F000FFF7CBFA04460CB12046A4E7284848EA87
:10250000000022490860292048604020886000209F
:10251000C8604FF4806008610846FEF77BFCFFF757
:1025200014FF04460CB120468DE70020FEF790FC16
:102530000646012080EAD67080F001076D1C1FB9A5
:102540004FF6FF708542C3D34FF6FF70854202D32A
:102550001B24204677E706F08040060002D00220C8
:102560000949086020466EE710B50024FFF7FBF923
:10257000FFF768FAFEF700FCFFF73BFF04468CB15B
:10258000204610BD0080014048000020602500204A
:10259000D02400204C000020C0240020482500202A
:1025A00000001080FFF73EFE04460CB12046E8E72D
:1025B0000120FD4908750020086048608860C860F7
:1025C00008610846FEF7E6FB1CB9F848FFF730FC47
:1025D000044634B9F549B1F854100804FFF710FC6B
:1025E000044624B94FF40060FFF7C4FB04462046BC
:1025F000C7E770B504460025ED4800880004ED49A2
:10260000886040F24D40C8600D20FFF73EFA054655
:102610000DB1284670BDE748406920602846F9E7BB
:1026200008B5002000906846FFF7E3FF08B1FF20DF
:1026300008BD0098C0F34320FAE710B50424FFF763
:10264000EFFF0446042C01D1002010BDFF2C01D166
:102650000220FAE70120F8E710B500240020FEF779
:10266000B9FB204610BD70B50446002500260020A9
:10267000FEF7EEFB00F0007010B10E25284670BD8D
:102680004020CD490860102048604020886000202C
:10269000C8604FF4806008610846FEF7BBFB10205D
:1026A000FFF7F3F905460DB12846E8E7C048008872
:1026B0000004C1490860372048604020886000203D
:1026C000C8604FF4806008610846FEF7A3FB37201E
:1026D000FFF7DBF905460DB12846D0E74FF0FF3094
:1026E000B649086040204860602088600220C860C9
:1026F00000200861012048610846FEF7B4FB002075
:10270000AD4908600D204860402088600020C86006
:102710004FF4806008610846FEF77CFB0D20FFF750
:10272000B4F905460DB12846A9E70EE04FF4004084
:10273000FEF7E7FB48B1002604E0FEF7B6FB44F8DD
:102740002600761C082EF8D320349A48406B40F2BD
:102750002A6108400028E9D00820FEF7D2FB28B102
:102760000820FEF7D8FB0425284688E70220FEF75C
:10277000C8FB28B10220FEF7CEFB022528467EE7E3
:102780002020FEF7BEFB28B12020FEF7C4FB062563
:10279000284674E74FF40070FEF7B3FB30B14FF4F6
:1027A0000070FEF7B8FB0725284668E703E0FEF750
:1027B0007CFB2060241D4FF40010FEF7A2FB0028D4
:1027C000F5D140F2FF50FEF7A6FB284657E770B55B
:1027D0000446002600257A48FFF745FF06460EB15D
:1027E000304670BD764800788509257074480078B9
:1027F000C0F3401565707248857828026080704883
:10280000C5786088284360806D4805792806606037
:102810006B484579606840EA0540606068488579A2
:10282000606840EA052060606548C57960682843B3
:1028300060606348057A2572457A6572807A050979
:10284000A5725F48C57A2802A0815D48057BA089F2
:102850002843A0815A48407B8508A5735848407B8F
:1028600000F00305E5733046BBE72DE9F0418046F3
:1028700014461D46069E0027002052490870524902
:102880000860524908604B49C862514800680228F4
:1028900008D10602020200232046294603F0D2FC9A
:1028A00004460D46444806601020434948604020D5
:1028B00088600020C8604FF4806008610846FEF719
:1028C000A9FA1020FFF7E1F8074617B13846BDE82E
:1028D000F0814FF0FF30394908600846466090208B
:1028E00088600220C8600020086101204861084615
:1028F000FEF7B9FA3048046011202F4948604020A3
:1029000088600020C8604FF4806008610846FEF7C8
:1029100081FA1120FFF7B9F807460FB13846D6E71C
:1029200001210802FEF766FA0120FEF770FA31462F
:102930004046FFF731F83846C9E72DE9F0478146B0
:1029400014461D46DDE90868002700201D4908706F
:102950001D49086001201D49086000201549C86212
:102960001B480068022808D1060202020023204604
:10297000294603F067FC04460D460F480660102008
:102980000D494860402088600020C8604FF4806096
:1029900008610846FEF73EFA1020FFF776F8074672
:1029A000C7B13846BDE8F08748250020F024002054
:1029B0004C0000200080014060250020742500208C
:1029C000E024002054000020580000205000002087
:1029D000480000204FF0FF30F949086008FB06F07E
:1029E0004860902088600220C860002008610120B3
:1029F00048610846FEF737FAF24804601220F149B0
:102A00004860402088600020C8604FF48060086102
:102A10000846FEF7FFF91220FFF737F8074617B10F
:102A20003846BDE8F08701210802FEF7E3F90120EE
:102A3000FEF7EDF908FB06F14846FEF7ADFF384614
:102A4000EFE710B5002400BFFEF7A1FF30B9DE4864
:102A5000006818B9DD4800780028F5D0DB48007818
:102A600010B1DA48007810BD2046FCE72DE9F041AE
:102A7000804614461D46069E00270020D349087054
:102A8000D1490860D2490860D249C862D24800687A
:102A9000022808D10602020200232046294603F03C
:102AA000D1FB04460D46C74806601020C549486062
:102AB000402088600020C8604FF4806008610846AC
:102AC000FEF7A8F91020FEF7E0FF074617B13846D9
:102AD000BDE8F081BB4804601820BA494860402036
:102AE00088600020C8604FF4806008610846FEF7E7
:102AF00091F91820FEF7C9FF07460FB13846E7E7FE
:102B00004FF0FF30AE49086008464660902088606C
:102B10000020C8600861012048610846FEF7A3F95B
:102B200001210802FEF766F931464046FEF75FFFD5
:102B30000120FEF76CF93846CAE72DE9F8438146D3
:102B400015461E46DDE908780024002000909F49C4
:102B500008709D49086001209D49086000209D493A
:102B6000C8629D480068022808D1070202020023BB
:102B70002846314603F066FB05460E46914807603D
:102B8000102090494860402088600020C8604FF4C1
:102B9000806008610846FEF73DF91020FEF775FFDA
:102BA000044614B12046BDE8F8838C480088000430
:102BB0008449086037204860402088600020C86051
:102BC0004FF4806008610846FEF724F93720FEF7CD
:102BD0005CFF04460CB12046E5E77A48C0F8008067
:102BE000172078494860402088600020C8604FF472
:102BF000806008610846FEF70DF91720FEF745FFD3
:102C000004460CB12046CEE76E48056019206D4998
:102C10004860402088600020C8604FF480600861F0
:102C20000846FEF7F7F81920FEF72FFF04460CB10F
:102C30002046B8E74FF0FF306149086008FB07F015
:102C40004860902088600020C860086101204861C9
:102C50000846FEF708F901210802FEF7CBF801202B
:102C6000FEF7D5F808FB07F14846FEF7C0FE204600
:102C700099E710B5002400BFFEF789FE30B952482D
:102C8000006818B9514800780028F5D04F480078FE
:102C900010B14E48007810BD40F2FF50FEF73BF9EE
:102CA0002046F8E74B48406B00F4405008B1012043
:102CB00070470020FCE710B50024002045498860DB
:102CC00040F24C40C8600C20FEF7DFFE0446204670
:102CD00010BD7CB5044600250020019000903F48BF
:102CE00000880004374908600D2048604020886053
:102CF0000020C8604FF4806008610846FEF78AF83B
:102D00003448406B009002E03248406B00900098DD
:102D100000F045000028F7D0009800F0040028B12A
:102D200003250420FEF7F7F828467CBD009800F044
:102D3000010028B101250120FEF7EDF82846F4E74F
:102D4000FEF782F8009000980D2802D01025284642
:102D5000EBE740F2FF50FEF7DEF80020FEF778F8D0
:102D600001900198C0F3432020701D49019808404C
:102D700008B92846D9E7019800F0004008B11C20A6
:102D8000D3E7019800F0804008B10920CDE7019811
:102D900000F0005008B10A20C7E7019800F0805009
:102DA00008B10B20C1E7019800F0006008B10C20C9
:102DB000BBE7019800F08060A0B10D20B5E70000EE
:102DC00074250020602500205800002054000020B9
:102DD0005000002000800140480000204C000020EE
:102DE00008E0FFFD019800F0807008B10E209CE71C
:102DF000019800F4000008B10F2096E7019800F454
:102E0000800008B1102090E7019800F4001008B18C
:102E100011208AE7019800F4801008B1122084E79D
:102E2000019800F4002008B113207EE7019800F417
:102E3000802008B1142078E7019800F4003008B130
:102E4000152072E7019800F4803008B116206CE775
:102E5000019800F4004008B1172066E7019800F4DB
:102E6000804008B1182060E7019800F4005008B1D4
:102E700019205AE7019800F0080008B11A2054E719
:102E8000284652E72DE9FC4105460E46002400275E
:102E90000020019000905A484068202101EA10501B
:102EA00018B925242046BDE8FC8156484068C0B2C8
:102EB000801C5549B1FBF0F001900020FDF7C8FFE0
:102EC00000F0007010B10E242046ECE74F48006877
:102ED000022801D16D0A760A4C48006838B14B4887
:102EE0000068012803D04948006802282BD14848CF
:102EF0000560202046494860402088600020C86066
:102F00004FF4806008610846FDF784FF2020FEF73B
:102F1000BCFD04460CB12046C5E73D4806602120B3
:102F20003B494860402088600020C8604FF48060C2
:102F300008610846FDF76EFF2120FEF7A6FD044656
:102F40000CB12046AFE700203149086026204860D8
:102F5000402088600020C8604FF480600861084607
:102F6000FDF758FF2620FEF790FD04460CB12046E1
:102F700099E7002700E07F1C01988742FBD3684651
:102F8000FFF7A7FE044603E06846FFF7A2FE0446EB
:102F90003CB99DF800000728F6D09DF800000628EF
:102FA000F2D020467FE710B51A48006801280BD1FF
:102FB00000201449886040F24C40C8600C20FEF7A5
:102FC00064FD1549087002E00020134908704FF4B1
:102FD0008070FDF7ADFF00214FF48070FDF70AFF10
:102FE00001200E4908600C48007810BD0146002001
:102FF00002E04910421CD0B20129FAD1704700000A
:10300000C024002000800140C0D4010048000020FE
:1030100060250020500000205400002058000020AF
:1030200000207047002070470020704701460120B3
:1030300011B1012904D102E020F0010002E001E019
:10304000012000BF00BF704770B5054625B1012DB6
:103050000BD0022D0BD109E0FFF786FA08B101244D
:1030600001E024F00104204670BD00E000BF00BF75
:103070000120F9E72DE9F047ADF5007D07460C4644
:1030800015461E464FF004094FF0000A17B1012FF4
:1030900044D142E004F0030000B34FF0000813E015
:1030A0002A466D1C012369460020FFF7E3FF804696
:1030B000B8F1000F00D00BE04FF4007269462046D3
:1030C00003F0F1F804F500743000A6F10106E7D131
:1030D00000BF40460DF5007DBDE8F0874648B0F8DA
:1030E000500080B2CDE900064348006D00FB05F1B9
:1030F0000A4600232046FFF720FCFFF7A2FC824689
:1031000000BFFFF79AFA0028FBD1BAF1000F01D1F6
:10311000814601E04FF0010903E002E04FF00409AD
:1031200000BF00BF4846D5E72DE9FC4706460F46DD
:1031300090461C464FF0040914B90420BDE8FC87F2
:1031400016B1012E1ED11CE02B48B0F8500080B201
:10315000CDE900042848006D00FB08F10A46002371
:103160003846FFF7EAFCFFF784FD054600BFFFF78E
:1031700064FA0028FBD10DB9814601E04FF0010946
:1031800003E002E04FF0040900BF00BF4846D5E766
:103190002DE9F04705460E4614464FF0040915B1D7
:1031A000012D20D11EE0012E04D0022E0ED0032EC0
:1031B00014D110E01048D0F850C062460023D0E986
:1031C0001271384603F03EF8206007E00A48B0F874
:1031D0005000208002E00120206000BF00BF4FF0BF
:1031E000000903E002E04FF0040900BF00BF4846B9
:1031F000BDE8F08701487047F02400200000214618
:1032000070B503460C4603E014F8015B03F8015B5C
:103210001500A2F10102F7D170BD30B5034601E0FF
:1032200003F8011B1400A2F10102F9D130BDF0B581
:1032300003461C460D46002000BF1600A2F1010205
:1032400007D014F8017B15F801CBA7EB0C06300072
:10325000F3D0F0BD024600E0521C107810B1107897
:103260008842F9D1107870472DE9F04104460027D3
:103270002079F8B1E56A607801232A4604F130012B
:10328000FFF752FF08B1012714E000202071206AE7
:10329000281AA16988420DD2E67809E0A0690544A0
:1032A000607801232A4604F13001FFF73DFF761EC6
:1032B000022EF3D23846BDE8F08170B504460D46C3
:1032C0000026E06AA84210D02046FFF7CDFF064650
:1032D0005EB9607801232A4604F13001FFF7CAFE87
:1032E00010B14FF0FF350126E562304670BD70B574
:1032F00004462046FFF7B8FF0546002D59D1207837
:1033000003284FD1607901284CD16289002104F152
:103310003000FFF782FF552184F82E12AA2184F88D
:103320002F12522084F830005221312001556121A2
:1033300032200155412133200155722184F81412A5
:1033400084F81512412184F81612612184F81712AD
:10335000217C84F81812208A010A84F81912206945
:10336000010C84F81A122069010E84F81B12217BCB
:1033700084F81C12A089010A84F81D12E068010C6F
:1033800084F81E12E068010E84F81F12E069401CE8
:10339000E0626078012304F13001E26AFFF7C4FEC5
:1033A00000206071607800221146FFF7F1FE00B145
:1033B0000125284670BD0246891E5069801E88423C
:1033C00001D8002070479378906A01FB0300F9E769
:1033D0002DE9F05F04460D46022D02D36069A84234
:1033E00002D84FF001098FE04FF0FF392078012813
:1033F00004D002283CD003287ED157E02F4607EBAB
:1034000057076089B7FBF0F0216A00EB010A5146CB
:103410002046FFF752FF00B175E038467F1C6189F6
:10342000B0FBF1F201FB120104F1300010F8018051
:103430006089B7FBF0F0216A00EB010A5146204693
:10344000FFF73BFF00B15EE06089B7FBF0F100FBE6
:10345000117104F13000405C48EA002805F00100D9
:1034600010B14FEA181001E0C8F30B0081464AE0A2
:10347000B4F80AA00AEBDA704010B5FBF0F0216A4C
:1034800000EB010B59462046FFF717FF00B13AE069
:1034900068006189B0FBF1F201FB120104F1300018
:1034A0000E183078717840EA01292CE0B4F80AA0AF
:1034B0004FEAEA700AEB90708010B5FBF0F0216AD9
:1034C00000EB010B59462046FFF7F7FE00B11AE06A
:1034D000A8006189B0FBF1F201FB120104F1300098
:1034E0000E18F0780006B17840EA0140717840EAA1
:1034F00001203178084300E002E020F0704902E04A
:103500004FF0010900BF00BF4846BDE8F09F2DE91C
:10351000F05F04460E461746022E02D36069B042A1
:1035200002D84FF00208B3E02078012804D0022826
:1035300052D0032872D172E0B14609EB5909608973
:10354000B9FBF0F0216A00EB010A51462046FFF773
:10355000B4FE8046B8F1000F00D098E0484609F16B
:1035600001096189B0FBF1F201FB120104F13000A5
:103570000D1806F0010020B1F9B2287861F31F1090
:1035800000E038462870012020716089B9FBF0F016
:10359000216A00EB010A51462046FFF78EFE804665
:1035A000B8F1000F00D072E06089B9FBF0F100FBC8
:1035B000119104F130000D1806F0010010B1C7F3AD
:1035C000071005E0287800F0F000C7F30321084356
:1035D0002870012020715AE0B4F80AA00AEBDA70D2
:1035E0004010B6FBF0F0216A00EB010B5946204673
:1035F000FFF763FE8046B8F1000F00D047E070008F
:103600006189B0FBF1F201FB120104F130000D18E9
:103610002F70380A68700120207138E034E0B4F867
:103620000AA04FEAEA700AEB90708010B6FBF0F047
:10363000216A00EB010B59462046FFF73EFE80460B
:10364000B8F1000F00D022E0B0006189B0FBF1F2C8
:1036500001FB120104F130000D18E8780006A9788A
:1036600040EA0140697840EA01202978084300F0E7
:10367000704007432F70380A6870380CA870380EF5
:10368000E8700120207102E04FF0020800BF00BF87
:103690004046BDE8F09F2DE9F04104460E46022E5B
:1036A00002D36069B04201D8022727E0002721E059
:1036B00031462046FFF78CFE054605B91DE0012D79
:1036C00001D1022719E0681C08B9012715E0002282
:1036D00031462046FFF71BFF074607B10DE0206982
:1036E000401C30B12069401C2061607940F001002D
:1036F00060712E466069B042DAD800BF3846BDE836
:10370000F0812DE9F04704468946B9F1000F06D152
:10371000E76817B16069B84215D8012713E0494638
:103720002046FFF755FE0646022E02D20120BDE8D4
:10373000F087701C08B93046F9E76069B04201D9DA
:103740003046F4E74F463D4600BF6D1C6069A84215
:1037500004D80225BD4201D90020E8E729462046C9
:10376000FFF736FE064606B909E0701C08B1012EC7
:1037700001D13046DBE7BD42E7D10020D7E700BFEB
:103780006FF0704229462046FFF7C1FE8046B8F12F
:10379000000F08D1B9F1000F05D02A46494620464E
:1037A000FFF7B5FE8046B8F1000F0BD1E560206948
:1037B000401C78B12069401E2061607940F0010012
:1037C000607107E0B8F1010F02D14FF0FF3000E067
:1037D000012005462846AAE72DE9F04104460E4699
:1037E000E680A568012D03D020684069A84202D870
:1037F0000220BDE8F0812DB920680078032801D1AE
:103800002068456A45B920680089B04201D8022085
:10381000EFE72068476A24E021684889C11700EB78
:10382000D16149112268927801FB02F812E0294621
:103830002068FFF7CDFD0546681C08B90120D8E7D0
:10384000022D03D320684069A84201D80220D0E7A6
:10385000A6EB08064645EAD229462068FFF7ABFDED
:103860000746E5600FB90220C3E721684889C11700
:1038700000EBD1614911B6FBF1F1394421612168B6
:103880004889C11700EBD1614911B6FBF1F201FB88
:1038900012612268303202EB411161610020A8E719
:1038A0002DE9F04104468846E088461CB0B208B1D4
:1038B000206910B90420BDE8F08121684889C1174A
:1038C00000EBD1614911B6FBF1F201FB1261002955
:1038D00071D12069401C2061E06828B92068008906
:1038E000B04268D80420E6E721684889C11700EB98
:1038F000D1614911B6FBF1F122689278521E114054
:10390000002958D1E1682068FFF762FD0546012DC6
:1039100001D80220CFE7681C08B90120CBE7206856
:103920004069A84241D8B8F1000F01D10420C2E794
:10393000E1682068FFF7E5FE05460DB90720BAE704
:10394000012D01D10220B6E7681C08B90120B2E7B9
:103950002068FFF789FC08B10120ACE721684A899B
:1039600001F130000021FFF758FC29462068FFF7DD
:1039700022FD2168C86200270EE00120216808713D
:103980002068FFF771FC08B1012094E72068C06A45
:10399000401C2168C8627F1C20688078B842ECD83F
:1039A0002068C06AC01B2168C862E560294620689B
:1039B000FFF701FD2061E68021684889C11700EB0F
:1039C000D1614911B6FBF1F201FB1261226830327C
:1039D00002EB4111616100206DE72DE9F0410446E1
:1039E0000E4600212046FFF7F7FE0546EDB90027F9
:1039F00000BF21692068FFF760FC054605B113E0B0
:103A000060690078E52802D06069007820B9781CE8
:103A10000746B04201D107E0002701212046FFF709
:103A20003FFF0546002DE4D000BF042D00D107253F
:103A30002846BDE8F08110B502468C7ECB7E44EA74
:103A400003201378032B05D10C7D4B7D44EA03231F
:103A500040EA034010BD81760B0AC3760A0C02755A
:103A60000B0E437570472DE9F04780460C46A17E4A
:103A7000E07E41EA002010B10020BDE8F087207808
:103A800000F03F00401E00EB800101EBC0064FF04C
:103A90000109002524E0F848405D205CF649495DB5
:103AA0002144497840EA0127B9F1000F11D0FF2ED7
:103AB0000BD2384602F095FB82463146761C38F828
:103AC000110002F08EFB824501D00020D5E7B946F7
:103AD00005E04FF6FF70874201D00020CDE76D1C56
:103AE0000D2DD8D3207800F0400038B1B9F1000F87
:103AF00004D038F8160008B10020BEE70120BCE76A
:103B0000F0B504468F7EC87E47EA002008B1002049
:103B1000F0BD087800F03F00401E00EB800707EB87
:103B2000C002012600231AE0D348C05C085CD24FD3
:103B3000FF5C0F447F7840EA07254EB1FF2A01D38E
:103B40000020E5E72E461046521C24F8105005E0F0
:103B50004FF6FF70854201D00020D9E75B1C0D2B8A
:103B6000E2D3087800F0400030B1FF2A01D30020F2
:103B7000CEE7002024F812000120C9E7F0B5044682
:103B80001D464D730F27CF7200270F738F76BC46EB
:103B900081F81BC0571E07EB870C0CEBC7060027EC
:103BA00038463B4600BF4FF6FF77B84203D0374652
:103BB000761C34F81700DFF8C0C21CF803C001F807
:103BC0000C000712DFF8B0C21CF803C08C448CF85C
:103BD000017008B94FF6FF705F1C3B460D2FE2D312
:103BE0004FF6FF77B84202D034F816700FB942F0A2
:103BF00040020A70F0BD2DE9FF4F83B08146904628
:103C00001D460B2248460499FFF7FAFA052D18D9EC
:103C10002F4611E038F802BB00240BE0584667F34A
:103C20005F0007464FEA6B0B07F4803008B19348FA
:103C30004740641C102CF1D3B8F800000028E9D1EB
:103C40003D46072400BF05F00F0000F1300ABAF12D
:103C5000390F03DD0AF1070000F0FF0A2046641E59
:103C600001A901F800A02D09002DECD17E200855F6
:103C7000002600E0761CA64203D219F80600202890
:103C8000F8D100BF082C04D22046641C01A9085CAE
:103C900000E020203146761C09F80100082EF1D3FF
:103CA00007B0BDE8F08F30B5014600200B2200BF01
:103CB000431003EBC01411F8015B6319D8B2531E13
:103CC0001A00F5D130BD2DE9F04704460021204609
:103CD000FFF782FD074617B13846BDE8F0874FF081
:103CE000FF09CA464FF6FF70208400BF2169206893
:103CF000FFF7E3FA074607B157E065692E780EB97A
:103D0000042752E0E87A00F03F08E52E05D008F0DD
:103D1000080040B1B8F10F0F05D04FF0FF094FF682
:103D2000FF7020843AE0B8F10F0F1CD1E06978B33E
:103D300006F0400030B195F80DA026F04006B146DF
:103D4000E08820844E450AD1687B504507D129463A
:103D5000E069FFF788FE10B1A9F1010000E0FF2043
:103D600000F0FF091AE0B9F1000F05D12846FFF76E
:103D70009AFF504500D118E0A069C07A00F0010018
:103D800038B90B222846A169FFF751FA08B90CE0AF
:103D900004E04FF0FF094FF6FF7020840021204619
:103DA000FFF77EFD0746002FA0D000BF384694E7FE
:103DB0002DE9F05F04468A464FF0FF09CB46042701
:103DC0004FE021692068FFF778FA074607B14BE01A
:103DD000666935780DB9042746E0F07A00F03F08AF
:103DE000E52D0AD02E2D08D028F02000082801D17A
:103DF000012000E00020504502D04FF0FF0929E0EB
:103E0000B8F10F0F1AD105F0400030B196F80DB09F
:103E100025F04005A946E08820844D450AD1707BF5
:103E2000584507D13146E069FFF76AFE10B1A9F1A4
:103E3000010000E0FF2000F0FF090BE0B9F1000FE6
:103E400004D13046FFF72FFF584502D04FF6FF70E0
:103E5000208409E000212046FFF722FD074607B134
:103E600002E020690028ACD100BF0FB10020206122
:103E70003846BDE8F09F0000D06500082110010021
:103E80002DE9FE4F0446D4F81880D4F81C900C227B
:103E900041466846FFF7B4F900BF9DF80B0000F0FB
:103EA000010020B3002088F80B00E06101260CE03F
:103EB00033464A4669464046FFF79DFE2046FFF7D7
:103EC00002FF054605B102E0761C642EF0D300BF68
:103ED000642E02D10720BDE8FE8F042D01D02846B4
:103EE000F9E79DF80B0088F80B00C4F81C909DF8CA
:103EF0000B0000F0020060B1002600E0761C39F8EB
:103F000016000028FAD106F119000D21B0FBF1F7D7
:103F100000E0012739462046FFF75FFD054645BB17
:103F2000781E070025D0E088C11B2046FFF754FC0F
:103F30000546F5B9A069FFF7B6FE824600BF2169C4
:103F40002068FFF7BAF9054605B111E0FAB2534609
:103F50006169E069FFF712FE012021680871002104
:103F60002046FFF79DFC054615B9781E0700E6D1EF
:103F700000BFC5B921692068FFF79FF9054695B9CB
:103F8000202200216069FFF748F90B22D4E90501DE
:103F9000FFF736F9A069C07A00F01800616908736C
:103FA000012021680871284695E770B50446E68827
:103FB000208C4FF6FF72904201D1304600E0208CF9
:103FC00001462046FFF708FC05460DBB00BF2169EE
:103FD0002068FFF772F9054605B115E0202200219F
:103FE0006069FFF71AF9E52061690870012021680E
:103FF0000871E088B04200D306E000212046FFF7B8
:104000004FFC0546002DE2D000BF042D00D1022553
:10401000284670BD2DE9F05F80460D4605F1090781
:10402000D8F81000002843D0D8F81440002626E025
:104030003046761C14F80090B9F1200F00D11EE034
:10404000B9F1050F01D14FF0E509092E02D12E205B
:1040500007F8010BB9F1410F0EDBB9F15A0F0BDC78
:10406000207B092E01D3102100E00821084018B15F
:1040700009F1200000F0FF0907F8019B00BF0B2E9B
:10408000D6D3E07A2872E07F0106A07F41EA0041A2
:10409000607F41EA0020217F08432860217E607E06
:1040A00041EA0020A880A17DE07D41EA0020E8806F
:1040B00000203870A86960B30026AF69D8F81000F6
:1040C00028B3E86918B3B8F820004FF6FF718842AA
:1040D0001DD0D8F81CB014E00021504602F05EF864
:1040E0008246BAF1000F01D100260FE000BFE86957
:1040F000401EB04201D8002608E03046761C07F882
:1041000000A03BF8021B5FEA010AE5D100BF0020D6
:10411000B855BDE8F09F2DE9F34F83B0824604986F
:10412000D0F800B001E00BF1010B9BF800002F2844
:10413000F9D09BF800005C28F5D0DAF81C90002537
:104140002E4600BF3046761C1BF80040202C03DBB7
:104150002F2C01D05C2C00D11CE0FF2D03D30620B6
:1041600005B0BDE8F08FE4B20121204602F016F858
:1041700004460CB90620F3E7802C06DA2146FEA09F
:10418000FFF768F808B10620EAE728466D1C29F811
:104190001040D7E700BF0BEB060104980160202C0C
:1041A00001DA042000E00020074608E0681E39F824
:1041B0001040202C02D02E2C00D002E06D1E002DCD
:1041C000F4D100BF0DB90620CAE7002029F8150078
:1041D0000B222021DAF81800FFF71FF8002600E074
:1041E000761C39F816002028FAD039F816002E2847
:1041F000F6D00EB147F0030700E06D1E25B1681E32
:1042000039F810002E28F8D14FF00008CDF80880BA
:104210000820019000BF3046761C39F8104004B9E0
:1042200055E0202C03D02E2C04D1AE4202D047F012
:104230000307F0E7DDE90110884201D2AE4216D152
:1042400001980B2802D147F0030740E0AE4201D0AD
:1042500047F00307AE4200D939E02E46082002900D
:104260000B2001904FEA88604FEA1068D3E7802C5A
:104270000BDB0021204601F091FF04461CB1A4F1A4
:104280008000C0490C5C47F0020700BF24B1214602
:10429000BDA0FEF7DFFF18B15F2447F003070FE072
:1042A000412C04DB5A2C02DC48F0020808E0612CA7
:1042B00006DB7A2C04DC48F00108A4F1200084B26B
:1042C000DAF818300298411C02911C54A3E700BF91
:1042D000DAF818000078E52803D10520DAF818107C
:1042E00008700198082803D14FEA88604FEA1068E7
:1042F00008F00C000C2803D008F00300032801D1BB
:1043000047F0020707F0020058B908F0030001283F
:1043100001D147F0100708F00C00042801D147F044
:104320000807DAF81800C772002019E72DE9F341F1
:104330000446019800782F2803D0019800785C2863
:1043400002D10198401C01900020A06001980078E3
:10435000202807D200212046FFF73EFA054600201C
:10436000606128E000BF01A92046FFF7D4FE0546A2
:1043700005B11FE02046FFF7A6FC0546A069C67AF6
:104380003DB1042D04D100BF06F0040000B905259D
:1043900010E006F0040000B10CE06769F87A00F064
:1043A000100008B9052505E039462068FFF743FBF2
:1043B000A060D8E700BF2846BDE8FC8170B5024682
:1043C0004FF0FF301568E5B1116800E0491C0D7829
:1043D000202D02D30D783A2DF8D10D783A2D0FD13A
:1043E000146814F8015BA5F130030A2B07D28C4244
:1043F00005D1022B03D218464D1C2946156070BD0D
:10440000002000BFFBE770B504460D460020207178
:10441000401EE06229462046FEF74FFF08B1032008
:1044200070BD94F82E1294F82F0241EA00204AF64B
:104430005521884201D00220F2E794F86900010674
:1044400094F8680041EA004194F8670041EA0020CE
:1044500094F86610084320F07F404D49884201D10E
:104460000020DDE794F88500010694F8840041EA15
:10447000004194F8830041EA002094F88210084338
:1044800020F07F404249884201D10020C8E7012046
:10449000C6E72DE9F74F8AB000210A9801600B9812
:1044A000FFF78CFF09900998002803DA0B200DB064
:1044B000BDE8F08F3749099851F820400CB90C201D
:1044C000F5E70A980460207878B16078FEF7AEFDD1
:1044D000814609F0010040B90C9820B109F00400B0
:1044E00008B10A20E3E70020E1E7002020700998E6
:1044F00060706078FEF7A8FD814609F0010008B100
:104500000320D4E70C9820B109F0040008B10A2078
:10451000CDE7607804F10A020221FEF739FE38B9CE
:104520006089B0F5007F03DB6089B0F5805F01DD55
:104530000120BCE7002739462046FFF764FF054607
:10454000012D01D045BB43E000262BE004F5F770B8
:1045500000EB061898F80400F8B198F80B00010673
:1045600098F80A0041EA004198F8090041EA002061
:1045700098F80810084311E0222A3A3C3E3F7C7F1D
:1045800000000000506500082B2C3B3D5B5D0000E7
:10459000464154005C0000201AE0002002A941F8C6
:1045A0002600761C042ED1D3002606B1761E00BF4D
:1045B00002A850F8267027B139462046FFF723FF9E
:1045C00000E0022005461DB1701C06460428EFD30A
:1045D000032D01D101206AE70DB10D2067E73B20D3
:1045E000015D94F83C0041EA00206189884201D0D5
:1045F0000D205CE74620015D94F8470041EA002A5F
:10460000BAF1000F0ED194F85700010694F8560045
:1046100041EA004194F8550041EA002094F8541012
:1046200040EA010AC4F818A04020005DE070E0787C
:10463000012804D0E078022801D00D2037E7E07887
:104640000AFB00FA3D20005DA070A07818B1A078A8
:10465000411E084008B10D2029E74120015D94F872
:10466000420041EA002020816089C11700EBD1613E
:104670004911228992FBF1F301FB132109B10D20AD
:1046800015E74320015D94F8440041EA00200890BA
:10469000089870B994F85300010694F8520041EA62
:1046A000004194F8510041EA002094F8501008436A
:1046B00008903E20015D94F83F0041EA00200190FF
:1046C000019808B90D20F2E66089C11700EBD161AD
:1046D0004911228992FBF1F2019951441144079149
:1046E000DDE90710884201D20D20E0E6DDE9071080
:1046F000401AA178B0FBF1FBBBF1000F01D10D20F6
:10470000D5E6012540F6F670834500D302254FF625
:10471000F670834500D303250BF102006061E76169
:1047200001983844206207983844A062032D16D1BE
:10473000208908B10D20BAE694F85F00010694F8CC
:104740005E0041EA004194F85D0041EA002094F8DF
:104750005C100843606260698000069014E0208964
:1047600008B90D20A3E6206A50446062022D02D1F0
:104770006069400007E0207D00F00100616901EB05
:10478000410100EB510006906089401E06990844E3
:104790006189B0FBF1F0A169884201D90D2086E65C
:1047A0004FF0FF302061E06080206071032D5AD10E
:1047B00094F8601094F8610041EA0020012852D179
:1047C000791C2046FEF779FDE8BB0020607194F863
:1047D0002E1294F82F0241EA00204AF65521884211
:1047E00041D13320005D01063220005D41EA0041E5
:1047F0003120005D41EA002094F830100843FC4964
:10480000884230D194F81702010694F8160241EA62
:10481000004194F8150241EA002094F8141208436C
:10482000F44988421FD194F81B02010694F81A0239
:1048300041EA004194F8190241EA002094F8181264
:104840000843206100E00EE094F81F02010694F88E
:104850001E0241EA004194F81D0241EA002094F84A
:104860001C120843E0602570E3480088401C80B2B9
:10487000E1490880E080002019E670B505462C4625
:1048800084B1206870B12068007858B12068C08871
:10489000A188884206D121684878FEF7C7FB00F05E
:1048A000010008B1092070BD0020FCE7F7B582B017
:1048B00016460398019001A8FFF780FD0546002DDC
:1048C00002DA0B2005B0F0BDCC4850F825400CB101
:1048D00000202070029810B1002002990870C7498A
:1048E000029841F82500029808B1012E01D000205D
:1048F000E8E7002203A902A8FFF7CBFD07463846E8
:10490000E0E72DE9F7438CB0054616461DB90920AE
:104910000FB0BDE8F0830020286006F01F0626F0E7
:1049200001020DA903A8FFF7B4FD0746002F74D1BB
:10493000CDF824D0B2480A9003A80D99FFF7F6FCF1
:104940000746089C0FB904B9062706F01C0000288A
:104950005CD04FB1042F03D103A8FFF791FA0746AB
:1049600046F00806089C09E0E07A00F0110008B162
:10497000072703E006F0040000B10827002F55D1F7
:1049800006F00800002851D0FEF734FC804684F879
:104990000E804FEA1821E1734FEA184121744FEA63
:1049A0001861617484F816804FEA1821E1754FEAA6
:1049B000184121764FEA186161760020E072207775
:1049C00000216177A177E17721460398FFF733F85B
:1049D000814600212046FFF73EF801200399087127
:1049E000B9F1000F22D00398D0F82C8049460398E3
:1049F000FEF751FE0746CFB9A9F101000399C8603F
:104A000041460398FEF759FC07460FE077B9E07A74
:104A100000F0100010B1042708E02DE006F00200BD
:104A200020B1E07A00F0010000B1072747B906F095
:104A3000080008B146F020060398C06AE8612C62BD
:104A4000D7B9AE710020E87121460398FEF7F3FF55
:104A50002861E07F0106A07F41EA0041607F41EAD2
:104A60000020217F0843E8600020A860A861039827
:104A700028602868C088A880384649E72DE9FF4F9C
:104A800085B0044615469A46DDF818B00020CAF8ED
:104A900000002046FFF7F1FE0490049818B1049836
:104AA00009B0BDE8F08FE07908B1E079F8E7A079C6
:104AB00000F0010008B90720F2E7D4E90210401A1B
:104AC00002900298854200D9029DC4E0216849897C
:104AD000A068B0FBF1F201FB1200002877D1216839
:104AE0004989A068B0FBF1F021688978491E084027
:104AF00000F0FF09B9F1000F17D1A06810B92069C3
:104B0000039004E061692068FEF762FC039003985B
:104B1000022802D20220E071C2E70398401C10B9BB
:104B20000120E071BCE70398606161692068FEF7CD
:104B300042FC064616B90220E071B1E74E442068F7
:104B40004089B5FBF0F8B8F1000F2DD009EB080053
:104B500021688978884203D920688078A0EB090809
:104B600021684878434632465946FEF783FA10B129
:104B70000120E07194E7A07900F0400078B1A069CD
:104B8000801B40450BD2A169891B23685B8901FB0F
:104B900003B021684A8904F12401FEF731FB206843
:104BA000408900FB08F74CE0A069B0422AD0A07908
:104BB00000F0400080B121684878012304F124010D
:104BC000A269FEF7B1FA18B10120E07168E71AE0B6
:104BD000A07920F04000A071216848780123324676
:104BE00004F12401FEF746FA60B10120E07157E7B5
:104BF0005252614172724161640000205C000020E9
:104C00008C250020A66121684989A068B0FBF1F2DB
:104C100001FB1200216849890F1AAF4200D92F46C3
:104C200021684989A068B0FBF1F201FB120104F18F
:104C3000240008443A46014601905846FEF7E0FA3F
:104C400000BFBB44A0683844A060DAF800003844D4
:104C5000CAF80000ED1B002D7FF438AF00201FE7DD
:104C60002DE9FF4F83B0044615469B4604980190FA
:104C70000020CBF800002046FFF7FFFD02900298CD
:104C800018B1029807B0BDE8F08FE07908B1E0797B
:104C9000F8E7A07900F0020008B90720F2E7A06861
:104CA0002844A168884200D20025CFE021684989C4
:104CB000A068B0FBF1F201FB120000287ED1216850
:104CC0004989A068B0FBF1F021688978491E084045
:104CD00000F0FF0ABAF1000F1ED1A06838B92769A9
:104CE00057B900212068FEF70CFD074604E0616912
:104CF0002068FEF706FD074607B9AAE0012F02D19A
:104D00000220E071BEE7781C10B90120E071B9E71C
:104D10006761206900B92761A07900F0400078B18F
:104D200021684878012304F12401A269FEF7FCF907
:104D300010B10120E071A5E7A07920F04000A0713A
:104D400061692068FEF737FB064616B90220E0715C
:104D500098E7564420684089B5FBF0F9B9F1000F97
:104D600031D00AEB090021688978884203D920688C
:104D70008078A0EB0A09216848784B4632460199B1
:104D8000FEF7D2F910B10120E0717BE7A069801B2A
:104D9000484511D2A069831B2068B0F80AC0019869
:104DA00003FB0C012068428904F12400FEF728FA75
:104DB000A07920F04000A071206800E017E0408951
:104DC00000FB09F835E0A069B0420FD0D4E9020138
:104DD00088420BD2216848780123324604F124012D
:104DE000FEF748F910B10120E0714BE7A661216898
:104DF0004989A068B0FBF1F201FB120021684989E2
:104E0000A1EB0008A84500D9A84621684989A068F7
:104E1000B0FBF1F201FB120104F124000844424608
:104E200000900199FEF7ECF9A07940F04000A071E4
:104E300000BF019840440190A0684044A060DBF8A6
:104E400000004044CBF80000A5EB0805002D7FF4DE
:104E50002DAF00BFD4E90201884201D9A068E0600B
:104E6000A07940F02000A07100200BE72DE9F0416F
:104E700004462046FFF701FD0746002F4CD1A079DC
:104E800000F02000002847D0A07900F0400078B161
:104E900021684878012304F12401A269FEF744F94E
:104EA00010B10120BDE8F081A07920F04000A07190
:104EB000E1692068FEF701FA0746002F2CD1256A28
:104EC000E87A40F02000E872207B2877A089010A68
:104ED0006977E068010CA977E068010EE977284658
:104EE0002169FEF7B8FDFEF785F90646AE75310A71
:104EF000E975310C2976310E69760020A8740021FD
:104F0000E974A07920F02000A071012021680871C7
:104F10002068FEF7ECF907463846C3E770B505464A
:104F20002846FFF7A3FF044634B92846FFF7A5FC3F
:104F300004460CB900202860204670BD2DE9F047DA
:104F400004460E462046FFF798FC8246BAF1000F51
:104F500002D05046BDE8F087E07908B1E079F9E782
:104F6000E068B04204D2A07900F0020000B9E6681F
:104F7000D4F808904FF00008C4F80880002E71D0D3
:104F8000206880782168498900FB01F7B9F1000F9A
:104F900011D0701EB0FBF7F1A9F10100B0FBF7F0E2
:104FA000814208D3A9F10100791E8843A060A0685E
:104FB000361A656912E025697DB900212068FEF77F
:104FC000A0FB0546012D02D10220E071C2E7681C5A
:104FD00010B90120E071BDE725616561002D41D068
:104FE00023E0A07900F0020038B129462068FEF7DE
:104FF00088FB054635B93E4619E029462068FEF78C
:10500000E7F90546681C10B90120E071A2E7012DFF
:1050100003D920684069A84202D80220E07199E7CC
:105020006561A0683844A060F61BBE42D9D800BFB5
:10503000A0683044A06020684089B6FBF0F100FB16
:10504000116078B129462068FEF7B5F98046B8F1BD
:10505000000F02D10220E0717CE720684089B6FB96
:10506000F0F0804421684989A068B0FBF1F201FBAF
:10507000120020B3A069404521D0A07900F0400083
:1050800078B121684878012304F12401A269FEF770
:105090004BF810B10120E0715CE7A07920F04000EE
:1050A000A071216848780123424604F12401FDF7EC
:1050B000E1FF10B10120E0714CE7C4F81880D4E999
:1050C0000201884205D9A068E060A07940F0200084
:1050D000A07150463EE733B585B0044614B90920A7
:1050E00007B030BD002206A904A8FFF7D2F9054693
:1050F0002DBB0498206001A8A061FE48E061204615
:105100000699FFF713F90546B5B9606958B16069AA
:10511000C07A00F0100028B161690498FEF78BFC9A
:10512000A06000E005253DB90498C088A08000215A
:105130002046FEF751FB0546042D00D105250DB193
:10514000002020602846CBE770B504462046FFF7D4
:1051500094FB05460DB900202060284670BDFEB5C1
:1051600004460E462046FFF788FB05461DBB2EB9B8
:1051700000212046FEF730FB05461CE0C4F818D09D
:10518000DC48E06100212046FEF712FE0546042DB2
:1051900002D10020206100256DB931462046FEF77E
:1051A00039FF00212046FEF77BFB0546042D02D186
:1051B0000020206100252846FEBD33B58DB00D4688
:1051C00000220DA904A8FFF764F9044694B901A8C8
:1051D0000A90C8480B9004A80D99FFF7A7F8044659
:1051E00044B9099828B12DB1294604A8FEF712FF49
:1051F00000E0062420460FB030BD2DE9F74F82B005
:105200008A46002202A90498FFF743F90190049806
:105210000468019800286DD1D4E90410801E8142F1
:1052200003D82069CAF8000064E094F800B00026B2
:10523000BBF1010F1CD1022700BF39462046FEF703
:10524000C7F8804608F1010010B9012001900EE076
:10525000B8F1010F02D10220019008E0B8F1000F6F
:1052600000D1761C781C074661698842E5D33AE094
:105270006769206A00904FF00009002500BFB9F16E
:10528000000F0ED10098421C014620460092FEF706
:1052900014F80190019800B124E004F13005B4F84D
:1052A0000A90BBF1020F09D12878697840EA012001
:1052B00000B9761CAD1CA9F1020910E0E8780006DF
:1052C000A97840EA0140697840EA0120297808433A
:1052D00020F0704000B9761C2D1DA9F10409781E3C
:1052E0000700CCD100BF2661607940F001006071F9
:1052F000CAF80060019805B0BDE8F08F70B50446AB
:105300002046FFF7BAFA054645B9E07908B1E579D4
:1053100004E0A07900F0020000B90725002D47D174
:10532000D4E90210884241D9A068E060A07940F039
:105330002000A071A06838B921692068FEF7ABF998
:105340000546002020611DE061692068FEF740F8F5
:1053500006460025701C00B90125012E00D102254A
:1053600085B920684069B0420CD96FF0704261691C
:105370002068FEF7CCF8054625B931462068FEF7CF
:105380008AF9054695B9A07900F0400070B121680E
:105390004878012304F12401A269FDF7C5FE08B194
:1053A000012503E0A07920F04000A07105B1E5716E
:1053B000284670BD71B595B00026012215A90CA82C
:1053C000FFF767F80446002C46D1CDF848D049488D
:1053D00013900CA81599FEF7A9FF044600BF002CF6
:1053E0003AD1119D0DB9062404E0E87A00F00100DD
:1053F00000B10724FCB929460C98FEF71CFB0646B1
:10540000CEB1E87A00F01000A8B124220CA903A8BC
:10541000FDF7F6FE0596022103A8FEF7DDF9044626
:105420004CB9002103A8FEF7C3FC044604B90724C5
:10543000042C00D100247CB90CA8FEF7B6FD04466C
:105440002CB926B131460C98FEF725F904461CB953
:105450000C98FDF74CFF0446204616B070BD2DE9B0
:10546000F1478DB0FDF7C6FE064601220DA904A83E
:10547000FFF70FF80546002D72D101A80A901D48CC
:105480000B9004A80D99FEF751FF054605B90825B4
:1054900000BF042DF0D100210498FEF732F9074631
:1054A000002507B90725012F00D10225781C00B976
:1054B00001251DB90498FDF7D7FE0546002D5ED1E4
:1054C00039460498FDF777FF8146049800F13004CF
:1054D0000498428900212046FDF79FFE0B222021DF
:1054E0002046FDF79AFE2E2020701020E072A6754F
:1054F000310A01E08C250020E175310C2176310E56
:10550000617639462046FEF7A6FA2022214604F1AC
:105510002000FDF775FE2E2084F82100DDF818A08C
:1055200004980078032804D10498406A504500D1BB
:10553000AA46514604F12000FEF78DFA049890F82F
:10554000028018E00498C0F82C9009F101090120AC
:10555000049908710498FDF787FE05460DB10DE02A
:105560002DE00498428900212046FDF756FEA8F15F
:10557000010000F0FF08B8F1000FE3D100BF1DB932
:1055800004A8FEF77DFC054625B139460498FEF7D0
:1055900082F814E0099C1020E072A675310AE175CA
:1055A000310C2176310E617639462046FEF753FAEA
:1055B0000120049908710498FDF799FE05462846D4
:1055C0000EB0BDE8F087F7B58CB00F461446012247
:1055D0000CA903A8FEF75DFF0646EEB9CDF824D06E
:1055E000F8480A9003A80C99FEF7A0FE064600BFF3
:1055F00096B9089D0DB906260EE004F0270407EAC7
:105600000400E97AA1430843E87201200399087174
:105610000398FDF76CFE064630460FB0F0BDF3B5BB
:105620009BB001221BA912A8FEF733FF0446002CF1
:1056300075D112980990CDF860D0E248199012A85F
:105640001B99FEF773FE044600BF002C67D1179824
:1056500008B9042463E0179800F10B01152203A890
:10566000FDF7CEFD242212A909A8FDF7C9FD1CA84B
:10567000FEF7A4FE002805DB09A81C99FEF756FEDC
:10568000044600E00B2404B90824042C47D109A8DF
:10569000FEF7F6FB0446002C41D10E9D13220DF1BE
:1056A0000E0105F10D00FDF7ABFD9DF80C0040F07B
:1056B0002000E872012012990871E87A00F01000C9
:1056C00018B30B99149888421FD029461298FEF7F8
:1056D000B2F9074639461298FDF76DFE06460EB937
:1056E000022412E031461298FDF7E7FD04461298B5
:1056F00000F150054CB968782E2806D128460B9940
:10570000FEF7A9F901201299087144B912A8FEF711
:105710004CFC04461CB91298FDF7E9FD04462046EE
:105720001DB0F0BD73B58CB00D4601220CA903A8C5
:10573000FEF7AFFE0646FEB9CDF824D0A1480A9088
:1057400003A80C99FEF7F2FD064600BFA6B9089C17
:105750000CB9062610E0A879A075E8880112E17559
:1057600028792076A88801126176012003990871B2
:105770000398FDF7BCFD064630460EB070BD2DE91E
:10578000F74F90B091461198012803DD132013B014
:10579000BDE8F08F10A8FEF711FE0F900F980028BB
:1057A00001DA0B20F3E788490F9851F820500DB922
:1057B0000C20ECE7002028700F98C0B20C9000205D
:1057C0000B900C98FDF740FC0190019800F001004F
:1057D00008B10320DBE7019800F0040008B10A20BB
:1057E000D5E705F10A0202210C98FDF7D1FC38B982
:1057F0006889B0F5805F03DC6889B0F5007F01DA65
:105800000120C4E700BF04AA01210C98FDF7C0FCE9
:1058100010B90498802801D20120B8E7119808B186
:10582000002000E03F2082460498A0EB0A0004908C
:10583000A9F1010000EA090008B14FF00009B9F12F
:10584000000F1AD16889C11700EBD15149124FF4EA
:10585000FA6292FBF1F1049AB2FBF1F10A914FF076
:10586000000B01E00BF1010B584830F81B100A98AF
:105870008142F7D8564830F81B90B9F5007F02D323
:105880006889B9FBF0F9B9F1000F01D14FF00109B6
:10589000B9F1800F01D94FF080090498B0FBF9F8F5
:1058A000012640F6F670804500D302264FF6F670CA
:1058B000804500D30326032E0CD1082000EB88007E
:1058C00069890844401EB0FBF1F7202003900020B6
:1058D000029019E0012E05D108EB4800401C400859
:1058E000C01C02E04FEA4800001D074668893844A2
:1058F000401E6989B0FBF1F70120039068894FF4DD
:105900008041B1FBF0F00290039850440790079853
:105910003844069002990698084405900598484432
:10592000A0EB0A000499884201D90E202FE709AAAA
:1059300003210C98FDF72CFC28B9099818B1099897
:10594000B0F5004F01D90120099009990598084444
:10595000401E491E8843099009990598081A099024
:10596000032E08D1099903980844039009990798D0
:105970000844079001E009980744DDE90301081A8B
:10598000C11B0298081AB0FBF9F8022E03D140F6A9
:10599000F670804505D3032E05D14FF6F67080458D
:1059A00001D20E20F3E6032E02D10C200D9019E057
:1059B000012E0FD10498B0F5803F0BD201200D903D
:1059C00010E000008C2500205C000020DE6500084F
:1059D000F46500080498B0F5803F01D2042000E08F
:1059E00006200D9000BF119810B1F0200E9043E0FA
:1059F0006A89002105F13000FDF70FFC05F5F77409
:105A000001206070A0700020E0700D982071FE20D1
:105A10006071049850443F21B0FBF1F0FF21B0FBCE
:105A2000F1F009903F21099841EA9000A07109988E
:105A3000E0713F20207200216172A172E17204982E
:105A400020730498010A61730498010CA1730498EF
:105A5000010EE173552185F82E12AA2185F82F1227
:105A60000123002205F130010C98FDF75DFB08B120
:105A700001208CE6F8200E9005F130046A8900219F
:105A80002046FDF7CAFB0B22FEA12046FDF7B8FB1E
:105A9000B5F80AB084F80BB04FEA1B21217384F8E3
:105AA0000D900398A0730398010AE17301202074FC
:105AB000032E01D1002001E04FF40070834684F8EA
:105AC00011B04FEA1B21A1740498B0F5803F05D2B4
:105AD0000498E0740498010A217510E0049884F891
