:020000040800F2
:10000000502C0020450100086D2B00086F2B0008C4
:10001000732B0008772B00087B2B000800000000E2
:100020000000000000000000000000007F2B00081E
:10003000812B000800000000832B0008852B00089E
:100040005F0100085F0100085F0100085F01000810
:100050005F0100085F0100085F0100085F01000800
:100060005F0100085F0100085F0100085F010008F0
:100070005F0100085F0100085F0100085F010008E0
:100080005F0100085F0100085F0100085F010008D0
:100090005F0100085F0100085F0100085F010008C0
:1000A0005F0100085F0100085F0100085F010008B0
:1000B0005F0100085F0100085F0100085F010008A0
:1000C0005F0100085F0100085F0100085F01000890
:1000D0005F0100085F0100085F0100085F01000880
:1000E0005F010008C52B00085F0100085F010008E0
:1000F0005F0100085F0100085F0100085F01000860
:100100005F010008872B00085F0100085F010008FD
:100110005F0100085F0100088F2B00085F010008E5
:100120005F0100085F0100085F0100085F0100082F
:10013000DFF80CD008F0DCF900480047B5290008CA
:10014000502C00200648804706480047FEE7FEE79F
:10015000FEE7FEE7FEE7FEE7FEE7FEE7FEE7FEE777
:1001600047020008310100080CB500200190009002
:100170006C48006840F480306A49086000BF6948F4
:10018000006800F4003000900198401C0190009835
:1001900018B90198B0F5A06FF1D16248006800F479
:1001A000003010B10120009001E000200090009884
:1001B000012843D15C48006840F010005A490860AB
:1001C0000846006820F0030008600846006840F018
:1001D0000200086053484068524948600846406839
:1001E00048600846406840F48060486008464068BF
:1001F00020F47C1048600846406840F4E8104860ED
:100200000846006840F08070086000BF45480068FC
:1002100000F000700028F9D04248406820F0030048
:10022000404948600846406840F00200486000BF0E
:100230003C48406800F00C000828F9D10CBD10B50E
:10024000FFF792FF10BD10B53648006840F001007E
:1002500034490860084640683449084031494860DC
:1002600008460068324908402E4908600846006880
:1002700020F4802008600846406820F4FE004860B2
:100280004FF41F008860FFF7DAFF4FF00060294944
:10029000086010BD10B5002100200022214B5B68D2
:1002A00003F00C0121B1042906D0082928D107E068
:1002B000214B224C236027E01F4B204C236023E07E
:1002C000184B5B6803F47010164B5B6803F48032C4
:1002D000022303EB904022B9194B4343174C236090
:1002E0000DE0104B5B6803F4003323B1144B434320
:1002F000124C236003E0104B4343104C236003E097
:100300000D4B0E4C236000BF00BF064B5B68C3F370
:1003100003130C4CE15C094B1B68CB40074C23607A
:1003200010BD000000100240002002400000FFF855
:10033000FFFFF6FE08ED00E000127A00000000204A
:1003400000093D000400002031490143314A116099
:10035000704770B5002100230F22C47804B32D4CE0
:10036000246804F4E064C4F5E064210AC1F10403E4
:10037000CA40447804FA03F1847814402143090107
:10038000254C0678A155047804F01F050124AC40E3
:1003900005786D11AD0005F1E025C5F8004109E0D3
:1003A000047804F01F050124AC401C4D067876113A
:1003B00045F8264070BD1A4A0A400243154B1B1FE0
:1003C0001A60704739B1134A121D12680243114B6B
:1003D0001B1D1A6006E00F4A121D126882430D4B66
:1003E0001B1D1A607047042808D14FF0E0210969ED
:1003F00041F004014FF0E022116107E04FF0E021ED
:10040000096921F004014FF0E022116170470000FA
:100410000000FA050CED00E000E400E080E100E0FF
:1004200080FFFF1F10B50446FA48844208D101211D
:10043000401500F0D5FF0021601500F0D1FF17E056
:10044000F548844208D10121001500F0C9FF0021C0
:10045000201500F0C5FF0BE0F048844208D10121CF
:10046000C80300F0BDFF00214FF4004000F0B8FFCA
:1004700010BD30B50246002000235068E84C2040F3
:100480000D790C6844EA0524204350609068E54CDF
:100490002040D1E902542C434D7944EA45042043DD
:1004A0009060D06A20F470000C7C641EE4B2234398
:1004B00040EA0350D06230BD0021016001714171FA
:1004C0008160C16001210174704721B1826842F0EE
:1004D0000102826003E0826822F0010282607047BC
:1004E00021B1826842F48072826003E0826822F463
:1004F00080728260704710B50023CBB21AB1446895
:100500001C43446002E044689C43446010BD816821
:1005100041F0080181607047014600208A6802F0BE
:1005200008020AB1012000E000207047816841F014
:10053000040181607047014600208A6802F00402CD
:100540000AB1012000E00020704721B1826842F426
:10055000A002826003E0826822F4A00282607047F9
:10056000014600208A6802F480020AB1012000E0FE
:100570000020704710B50A4600210023416821F48D
:100580006041531E41EA4331416010BD21B14268D0
:1005900042F40062426003E0426822F4006242607A
:1005A0007047F0B504460D4600200021092D11DDED
:1005B000E068A5F10A0606EB4607072606FA07F1EA
:1005C0008843A5F10A0606EB460603FA06F108433E
:1005D000E0600CE0206905EB4507072606FA07F105
:1005E000884305EB450603FA06F108432061072A14
:1005F0000FDA606B561E06EB86071F2606FA07F118
:100600008843561E06EB860605FA06F1084360632A
:1006100022E00D2A0FDA206BD61F06EB86071F2675
:1006200006FA07F18843D61F06EB860605FA06F19F
:100630000843206310E0E06AA2F10D0606EB86078E
:100640001F2606FA07F18843A2F10D0606EB86067F
:1006500005FA06F10843E062F0BD21B1826842F478
:100660008012826003E0826822F480128260704708
:100670000146C86C80B2704766484C3000687047CD
:1006800021B1426842F48062426003E0426822F491
:1006900080624260704721B1426842F480524260F9
:1006A00003E0426822F48052426070470A4600210B
:1006B000816821F4E04111438160704721B1826873
:1006C00042F40042826003E0826822F400428260C9
:1006D000704721B1826842F40212826003E08268AE
:1006E00022F4021282607047014600208A6802F4F8
:1006F00000120AB1012000E000207047F0B5044666
:100700001546002000220026092911DDE068A1F12C
:100710000A0707EB470C072707FA0CF29043A1F1F1
:100720000A0707EB470703FA07F21043E0600CE003
:10073000206901EB410C072707FA0CF2904301EB0B
:10074000410703FA07F210432061A06BC0F3015682
:10075000EF1C06F1010CA7EB0C0707EB870C1F271A
:1007600007FA0CF29043EF1C06F1010CA7EB0C0703
:1007700007EB870701FA07F21043A063F0BD10B53D
:100780000A4600210023816B21F44011531E41EAE7
:100790000351816310BD08B5002300930090009BB6
:1007A0000B440093009B1A6008BD08B50246002068
:1007B0000090009201F12800009B184400900098DE
:1007C000006880B208BD0A4600214168164B1940F6
:1007D0001143416070474162826270470A460021BE
:1007E000416821F01F0111434160704740B1094940
:1007F0000831096841F40001064A0832116007E037
:1008000004490831096821F40001024A08321160E4
:10081000704700000024014000280140003C0140D6
:10082000FFFEF0FFFDF7F1FFFFFD3FFF0246002056
:1008300013680B400BB1012000E000207047CA4351
:100840000260704770B502460020002300240B129E
:100850005568CEB205EA060415681D4015B10CB105
:10086000012000E0002070BD00220A12D343036083
:100870007047000010B5012000F0CCFD002000F012
:10088000C9FD10BD2A49086070472949091F086041
:100890007047274984310860704701460020254A87
:1008A00010884FF67F4210400843224A108070475C
:1008B000014600201F4A10884FF6807210400843FE
:1008C0001C4A1080704708B500220092194A2C3A41
:1008D0000092009A02440092009A116008BD08B587
:1008E00001460020009013482C38009000980844DE
:1008F00000900098008808BD0D489C300068C0B288
:1009000070470C480830008840F001000949083160
:10091000088070470648A0300068C0B2704705489C
:100920000830008840F00200024908310880704712
:1009300004860D422C6C004001684FF6FE72114097
:1009400001600021016041608160C1608D49884281
:1009500008D18C490839496841F00F01894A083AA1
:1009600051608AE087491431884208D185490839A5
:10097000496841F0F001834A083A51607DE08149BD
:100980002831884208D17F490839496841F47061AB
:100990007C4A083A516070E07A493C31884208D17B
:1009A00078490839496841F47041764A083A5160FB
:1009B00063E074495031884208D172490839496866
:1009C00041F470216F4A083A516056E06D49643134
:1009D000884208D16B490839496841F47001694A75
:1009E000083A516049E067497831884208D1654941
:1009F0000839496841F07061624A083A51603CE048
:100A00006149884206D1011F096841F00F01021FA8
:100A1000116032E05C491431884208D15A49091FFB
:100A2000096841F0F001584A121F116025E056494B
:100A30002831884208D15449091F096841F470617E
:100A4000514A121F116018E04F493C31884208D1C9
:100A50004D49091F096841F470414B4A121F11604A
:100A60000BE049495031884207D14749091F0968BD
:100A700041F47021444A121F1160704710B50022E2
:100A8000026847F6F0739A430C6A8B6823430C693B
:100A900023434C6923438C692343CC6923434C6A29
:100AA00023438C6A23431A430260CB6843600B687C
:100AB00083604B68C36010BD0021016041608160AC
:100AC000C160016141618161C16101624162816214
:100AD000704721B1026842F00102026004E002683E
:100AE0004FF6FE731A40026070471AB103680B4359
:100AF000036002E003688B43036070474160704706
:100B00000146486880B2704701460020002201F08B
:100B100080531BB11C4B083B1A6802E0194B083B81
:100B20001A6802EA01030BB1012000E000207047BF
:100B300000F0805119B11449091F086002E0114901
:100B400008394860704701460020002201F08053B8
:100B50001BB10D4B083B1A6802E00A4B083B1A68B0
:100B600002EA01030BB1012000E00020704700F011
:100B7000805119B10449091F086002E00149083990
:100B800048607047080002400804024000204449C1
:100B90000860091D0860091D0860091D08604148BA
:100BA0003F4914310860704700213D498279002A8D
:100BB0003AD00A46126803689A430B461A600A1D27
:100BC000126803689A430B1D1A60027911440A687F
:100BD00003681A430A60324A0832126803689A436B
:100BE0002F4B08331A601A1D126803689A432C4B66
:100BF0000C331A604279102A0ED11A1F126803684A
:100C00001A43274B08331A601A1D126803681A43E7
:100C1000234B0C331A600DE02149427911440A68D4
:100C200003681A430A6005E0027911440A68036800
:100C30009A430A6070470021016001710C214171E3
:100C40000021817170471649103109680143144A27
:100C500010321160704701460020114A14321268A8
:100C60000A400AB1012000E0002070470C4914310D
:100C700008607047014600200022094B1B6803EA08
:100C80000102074B14331B680B4013B10AB101205A
:100C900000E00020704702491431086070470000EE
:100CA00000040140FFFF0F0010B50446CC48844209
:100CB00008D10121042000F093FB0021042000F062
:100CC0008FFB46E0C748844208D10121082000F08C
:100CD00087FB0021082000F083FB3AE0C2488442F1
:100CE00008D10121102000F07BFB0021102000F032
:100CF00077FB2EE0BD48844208D10121202000F07E
:100D00006FFB0021202000F06BFB22E0B8488442FA
:100D100008D10121402000F063FB0021402000F0B9
:100D20005FFB16E0B348844208D10121802000F027
:100D300057FB0021802000F053FB0AE0AE488442BC
:100D400007D10121801500F04BFB0021A01500F018
:100D500047FB10BD10B50121084600F041FB002102
:100D6000012000F03DFB10BD2DE9F04102460025B9
:100D70000026002000230024002791F803C00CF077
:100D80000F0591F803C00CF0100CBCF1000F03D05C
:100D900091F802C04CEA050591F800C0BCF1000FC3
:100DA00031D0146800202BE04FF0010C0CFA00F356
:100DB000B1F800C00CEA03069E4220D183004FF038
:100DC0000F0C0CFA03F7BC4305FA03FC4CEA0404CD
:100DD00091F803C0BCF1280F06D14FF0010C0CFABA
:100DE00000FCC2F814C00AE091F803C0BCF1480F3F
:100DF00005D14FF0010C0CFA00FCC2F810C0401CE9
:100E00000828D1D31460B1F800C0BCF1FF0F34DD65
:100E1000546800202EE000F1080C4FF0010808FA99
:100E20000CF3B1F800C00CEA03069E4221D1830006
:100E30004FF00F0C0CFA03F7BC4305FA03FC4CEA25
:100E4000040491F803C0BCF1280F05D100F1080C8F
:100E500008FA0CF8C2F8148091F803C0BCF1480FEE
:100E600007D100F1080C4FF0010808FA0CF8C2F89D
:100E70001080401C0828CED35460BDE8F0814FF6A6
:100E8000FF710180022181700421C1707047024608
:100E9000002093680B400BB1012000E00020704758
:100EA0000146886880B2704702460020D3680B4034
:100EB0000BB1012000E0002070470146C86880B2F5
:100EC000704701617047416170470AB1016100E0FC
:100ED00041617047C16070474FF480320A438261BC
:100EE0008161826182698269704702460020434BBA
:100EF00018684FF68073184040EA021008433F4BD1
:100F0000186070473E49C8617047F0B50A46002333
:100F100000240021002500F00046B6F1004F02D168
:100F2000364EF16901E0354E7168C0F3034583B276
:100F300000F44016B6F5401F08D121F070612F4E25
:100F4000766826F070662D4F7E6012E000F4801601
:100F5000B6F5801F06D1032606FA05F4A14341F039
:100F6000706106E0460D360103FA06F6B14341F022
:100F7000706122B1460D360103FA06F6314300F0E6
:100F80000046B6F1004F02D11C4EF16101E01B4E4C
:100F90007160F0BD30B500228B071C0F0F2303FAE0
:100FA00004F2164B08338C1053F824309343134C3F
:100FB00008348D1044F8253023468C1053F8243023
:100FC0008C07240F00FA04F423430C4C08348D10D2
:100FD00044F8253030BD0A49DC3108607047000014
:100FE00000080140000C01400010014000140140C5
:100FF00000180140001C0140002001400000014099
:101000000000204210B50121080700F0F6F9002188
:101010004FF0805000F0F1F910BD2A490862704786
:1010200028490861704701460020274A106820F0CF
:10103000E0000843106070472249A0310860704703
:1010400010B502460020204B186820F00300104322
:1010500018601E4B1B6843F004031C4C23600129DD
:1010600001D130BF00E020BF184B1B6823F0040300
:10107000164C236010BD1448006840F0040012496B
:1010800008600846006840F0020008600F480068E9
:1010900040F004000D49086000BF00BF30BF70473A
:1010A00001460020084A52680A400AB1012000E0C7
:1010B000002070470449096841EA8001024A116032
:1010C0007047000000000E420070004010ED00E08C
:1010D000DF48006840F00100DD49086008464068CC
:1010E000DC490840DA49486008460068DA490840A7
:1010F000D74908600846006820F480200860084648
:10110000406820F4FE0048604FF41F00886070477C
:10111000CF49096821F48031CD4A11601146096830
:1011200021F480211160B0F5803F03D0B0F5802F0D
:101130000ED106E0C649096841F48031C44A116005
:1011400007E0C349096841F4A021C14A116000E0E9
:1011500000BF00BF704710B50146002200230020E9
:101160004A11012A02D1BA4C236806E0022A02D1B0
:10117000B74C236A01E0B64C636A01F01F020124F8
:1011800094401C400CB1012000E0002010BD38B597
:10119000002000900024002500BF3120FFF7DBFF76
:1011A00005460098401C00900098B0F5A06F01D053
:1011B000002DF2D03120FFF7CEFF08B1012400E06E
:1011C0000024204638BD01460020A14A106820F0C6
:1011D000F80040EAC10010607047A04908607047FD
:1011E000024600209A4B586820F47C1042EA010322
:1011F0001843974B586070479849086670470146F6
:101200000020934A506820F0030008435060704764
:101210008F48406800F00C007047014600208C4A5F
:10122000506820F0F00008435060704701460020ED
:10123000874A506820F4E0600843506070470146D8
:101240000020834A506820F4605040EAC10050609A
:10125000704729B17E4A527A02437D4B5A7204E0AC
:101260007B4A527A82437A4B5A7270477B49D83113
:101270000860704701460020754A506820F44040DD
:101280000843506070470021714A20321170704A43
:1012900082F82010012802D004280AD104E001219C
:1012A0006B4A2032117005E00521694A2032117025
:1012B00000E000BF00BF704769490860704764499B
:1012C000096A0143624A11627047654944390860FE
:1012D000704730B500210022002400235C4D6D686A
:1012E00005F00C0121B1042905D0082923D105E01E
:1012F0005C4D056022E05B4D05601FE0544D6D685C
:1013000005F47012524D6D6805F48034022505EB2A
:1013100092421CB9544D554305600BE04C4D6D682D
:1013200005F400351DB1504D5543056002E04D4DAB
:101330005543056002E04B4D056000BF00BF444DC2
:101340006D6805F0F0010909484D6B5C0568DD40EA
:1013500045603F4D6D6805F4E061090A434D6B5CE3
:101360004568DD4085603A4D6D6805F46051C90AF5
:101370003E4D6B5C4568DD40C560354D6D6805F4DC
:101380004041890B3A4D6B5CC568B5FBF3F50561CF
:1013900030BD29B12E4A526902432D4B5A6104E0F7
:1013A0002B4A526982432A4B5A61704729B1284A15
:1013B00092690243264B9A6104E0254A926982436E
:1013C000234B9A61704729B1214AD2690243204BCD
:1013D000DA6104E01E4AD26982431D4BDA6170472C
:1013E00029B11B4AD2680243194BDA6004E0184A5B
:1013F000D2688243164BDA60704729B1144A1269E9
:101400000243134B1A6104E0114A12698243104BE4
:101410001A61704712494039086070470F49C86423
:1014200070470B49C87170470948406A40F08070A6
:1014300007494862704701460020054A92680A4001
:101440000AB1012000E0002070470149887270470E
:10145000001002400000FFF8FFFFF6FE00004242CD
:101460008004424200127A0000093D00140000206E
:101470002400002029B1504A128802434E4B1A80A2
:1014800004E04D4A128882434B4B1A8070474A4809
:10149000001D008840F010004749091D0880704772
:1014A0004548001D00884FF6EF7108404249091D6C
:1014B00008807047002140481C300188001F0088C8
:1014C00041EA0040704700B50246FFF7E0FF100C0C
:1014D000394918310880091D0A80FFF7E1FF00BD76
:1014E00000B50246FFF7D3FFC2F30340324908318B
:1014F0000880091D0A80FFF7D3FF00BD00B5024632
:10150000FFF7C5FF100C2C4920310880091D0A8007
:10151000FFF7C6FF00BD00202749103109880907E1
:10152000080B2549143109880843704700BF224839
:10153000001D008800F020000028F8D070471E48E9
:10154000001D00884FF6F77108401B49091D0880EF
:1015500000BF1948001D008800F008000028F8D0DE
:10156000704701460020144A121D12880A400AB131
:10157000012000E0002070470F49091D09888143C0
:101580000D4A121D11807047014600200A4A121DA3
:1015900012880A40D0B2084A12880A4012B108B133
:1015A000012000E0002070470349091D098881439C
:1015B000014A121D118070470028004000206F4929
:1015C000086048608860C86048628862C8626C4889
:1015D00088630020C86370470021684A516847F655
:1015E000FF629143027D83681A4343681A43C368CC
:1015F0001A4303681A4303691A4311435F4A51604F
:10160000704700210175016041608160C160016126
:1016100070475C49086070475849096821F0030128
:10162000564A1160114609680143116070475348DA
:10163000006800F00300704729B1504AD26B0243A2
:101640004E4BDA6304E04D4AD26B82434B4BDA6374
:1016500070474D49086070470021484B02689A6006
:101660001A46D1686FF30A01D0E901231A43C3680F
:101670001A4303691A431143404AD160704700215D
:10168000016041608160C160016170473B48006951
:10169000C0B2704708B501460020009037481430AA
:1016A000084400900098006808BD0021334B026890
:1016B0005A6242689A621A46D16A21F0F701D0E96B
:1016C00002231A4303691A4343691A4311432B4AFD
:1016D000D16270474FF0FF310160002141608160AD
:1016E000C1600161416170472448006B7047234825
:1016F00080300068704721498031086070471F487A
:10170000806C704720491431086070471E491831B9
:10171000086070471C491C31086070471A49203125
:10172000086070471949086070471849091D08602A
:10173000704701218143154A0832116070471349EF
:101740000C3108607047014600200C4A526B0A4079
:101750000AB1012000E00020704708498863704703
:1017600001460020054A526B0A400AB1012000E000
:1017700000207047014988637047000000800140E5
:10178000FF07C000A00030428C053042AC0130425F
:1017900010B50446FE48844208D10121C014FFF769
:1017A0001FFE0021E014FFF71BFEC4E0B4F1804FE0
:1017B00008D101210846FFF720FE00210120FFF794
:1017C0001CFEB8E0F348844208D101210220FFF753
:1017D00014FE00210220FFF710FEACE0EE48844228
:1017E00008D101210420FFF708FE00210420FFF7A3
:1017F00004FEA0E0E948844208D101210820FFF757
:10180000FCFD00210820FFF7F8FD94E0E448844245
:1018100008D101211020FFF7F0FD00211020FFF773
:10182000ECFD88E0DF48844208D101212020FFF749
:10183000E4FD00212020FFF7E0FD7CE0DA4884424F
:1018400008D101214014FFF7CBFD00216014FFF700
:10185000C7FD70E0D548844209D10121C804FFF7D3
:10186000BFFD00214FF40020FFF7BAFD63E0D04830
:10187000844209D101210805FFF7B2FD00214FF490
:101880008010FFF7ADFD56E0CA48844209D101211E
:101890004805FFF7A5FD00214FF40010FFF7A0FD5C
:1018A00049E0C548844208D101214020FFF7A5FD49
:1018B00000214020FFF7A1FD3DE0C048844208D14F
:1018C00001218020FFF799FD00218020FFF795FD81
:1018D00031E0BB48844208D101218015FFF78DFD1E
:1018E0000021A015FFF789FD25E0B648844209D103
:1018F00001210804FFF774FD00214FF48030FFF749
:101900006FFD18E0B048844209D101214804FFF777
:1019100067FD00214FF40030FFF762FD0BE0AB489C
:10192000844208D101218804FFF75AFD00214FF4B9
:101930008020FFF755FD10BD00220288944B98428D
:101940000ED0994B98420BD0B0F1804F08D0914BFC
:10195000984205D0904B984202D0904B984204D1C7
:101960004FF68F731A404B881A438D4B984207D01D
:101970008C4B984204D04FF6FF431A40CB881A4351
:1019800002808B8883850B880385814B98420BD01E
:10199000854B984208D08B4B984205D08A4B984291
:1019A00002D08A4B984201D10B7A038601238382AD
:1019B000704770B5002400220023058C4FF6FE7698
:1019C00035400584028C8388048B4FF68F752C403C
:1019D000B51E2C400D882C43751E2A400D892A43C4
:1019E0004D882A436A4DA8420BD06F4DA84208D0BB
:1019F000744DA84205D0744DA84202D0734DA84240
:101A000013D14FF6F7752A404D892A434FF6FB75DF
:101A10002A408D882A434FF6FF652B404FF6FF552D
:101A20002B408D892B43CD892B4383800483CD8824
:101A30008586028470BD70B5002400220023058CC9
:101A40004FF6EF7635400584028C8388048B48F688
:101A5000FF752C404FF6FF452C400D884FF6FF7662
:101A600006EA05252C434FF6DF752A400D8906EA64
:101A700005152A434D8806EA05152A43444DA84218
:101A800002D0494DA8421DD14FF67F752A404D899D
:101A90004FF6FF7606EA05152A434FF6BF752A4032
:101AA0008D8806EA05152A434FF6FF352B404FF285
:101AB000FF752B408D8906EA85052B43CD8906EA03
:101AC00085052B4383800483CD880587028470BD00
:101AD00070B5002400220023058C4FF6FF663540C8
:101AE0000584028C8388848B4FF68F752C404FF6CB
:101AF000FC752C400D882C434FF6FF552A400D896C
:101B00004FF6FF7606EA05252A434D8806EA0525A5
:101B10002A431F4DA84202D0234DA8421DD14FF2A7
:101B2000FF752A404D894FF6FF7606EA05252A43C0
:101B30004FF6FF352A408D8806EA05252A434EF6E2
:101B4000FF752B404DF6FF752B408D8906EA051574
:101B50002B43CD8906EA05152B4383808483CD88EA
:101B60008587028470BD70B5002200230024058C97
:101B70004EF6FF7635400584038C8488828B48F6C8
:101B8000FF752A404FF6FF452A400D8820E00000EF
:101B9000002C01400004004000080040000C004000
:101BA000001000400014004000340140004C01408F
:101BB000005001400054014000180040001C00404B
:101BC0000020004000400140004401400048014026
:101BD0004FF6FF7606EA05252A434DF6FF752B40A2
:101BE0000D8906EA05352B434D8806EA05352B435A
:101BF000FA4DA84202D0FA4DA84208D14BF6FF7523
:101C00002C408D894FF6FF7606EA85152C4384809B
:101C10008283CD88A0F84050038470BD828B4FF240
:101C2000FF331A408283828B4FF6FF7303EA01234E
:101C30001A4382837047F0B50C46154600220021F6
:101C40000026078C4EF6FF7C07EA0C070784828B80
:101C5000018C4FF6FF7707EA043640F6FF473A401B
:101C60004FF6FF7707EA05273A434FF6FF7707EA73
:101C700003373A43D94FB8420ED0D94FB8420BD0B0
:101C8000B0F1804F08D0D74FB84205D0D64FB842F8
:101C900002D0D64FB84206D14DF6FF77394046F410
:101CA0008057394305E047F6FF57394044F48057E1
:101CB000394382830184F0BD828B4FF6F3731A405F
:101CC0008283828B0A4382837047F0B50C461546A7
:101CD000002200210026078C4FF6FF6C07EA0C0754
:101CE0000784828B018C4FF6FF7707EA04264FF6B4
:101CF0000C773A404FF6FF7707EA03172F433A4332
:101D0000B64FB8420ED0B64FB8420BD0B0F1804FAC
:101D100008D0B44FB84205D0B34FB84202D0B34F49
:101D2000B84206D14FF6FF57394046F48077394321
:101D300005E04FF2FF57394044F4807739438283FE
:101D40000184F0BD028B4FF2FF331A400283028BF5
:101D50004FF6FF7303EA01231A4302837047F0B57D
:101D60000C461546002200210026078C4FF6EF7C1A
:101D700007EA0C070784028B018C4FF6FF7707EA0E
:101D8000041640F6FF473A404FF6FF7707EA03375D
:101D90003A434FF6FF7707EA05273A438F4FB84299
:101DA0000ED08F4FB8420BD0B0F1804F08D08D4F7E
:101DB000B84205D08C4FB84202D08C4FB84206D101
:101DC0004FF6DF77394046F01007394305E04FF60C
:101DD0005F77394044F01007394302830184F0BD36
:101DE000028B4FF6F3731A400283028B0A4302837D
:101DF0007047F0B50C46154600220021068C4FF6C0
:101E0000FE773E400684028B018C4FF60C76324002
:101E10007E1C06EA03162E433243704EB0420ED0AB
:101E20006F4EB0420BD0B0F1804F08D06D4EB04233
:101E300005D06D4EB04202D06C4EB04206D14FF686
:101E4000FD76314044F00106314305E04FF6F5766A
:101E5000314044F00106314302830184F0BD70B586
:101E600005460C465D4885420ED05D4885420BD044
:101E7000B5F1804F08D05B48854205D05A4885426D
:101E800002D05A48854200D100E000BF208850B9F6
:101E90002389A28861882846FFF7ABFFE18828469E
:101EA000FFF79EFF25E0208804280AD12389A28815
:101EB00061882846FFF753FFE1882846FFF742FF75
:101EC00017E0208808280AD12389A288618828463B
:101ED000FFF7FBFEE1882846FFF7EEFE09E02389C5
:101EE000A28861882846FFF7A6FEE1882846FFF70A
:101EF00095FE70BD2DE9F04105460C4600260127F0
:101F0000608808B9022600E00026A088012801D1D7
:101F1000022700E001272088A0B92389A2886188D0
:101F20002846FFF766FFE1882846FFF759FF238917
:101F30003A4631462846FFF712FFE1882846FFF768
:101F400001FF13E02389A28861882846FFF707FF75
:101F5000E1882846FFF7F6FE23893A4631462846AF
:101F6000FFF747FFE1882846FFF73AFFBDE8F08119
:101F70000A884B881A438B881A43CB881A430B89EB
:101F80001A434B891A438B891A43A0F8442070479F
:101F90004FF6FF71818000210180C1804180017274
:101FA00070470021018041808180C1800181418191
:101FB0008181C181704700210180418001218180A0
:101FC0000021C18001817047002101804180818012
:101FD000C18001814181818170470000002C014056
:101FE000003401400004004000080040000C0040A4
:101FF00021B1028842F00102028004E002884FF61B
:10200000FE731A400280704731B1B0F8442042F4A8
:102010000042A0F8442005E0B0F84420C2F30E02CC
:10202000A0F8442070471AB183890B43838102E0F2
:1020300083898B43838170478182704741EA020321
:10204000A0F8483070471AB183890B43838102E0BE
:1020500083898B438381704701894FF6F872114061
:10206000018170470A46002101894FF68F7319409C
:1020700011430181704730B504460D46294620467C
:10208000FFF7F0FF208940F00700208130BD2DE9E7
:10209000F04104460D4616461F46602D06D13B46CC
:1020A000012231462046FFF75AFE05E03B46012259
:1020B00031462046FFF79DFE29462046FFF7D2FF16
:1020C000208940F007002081BDE8F08130B50C4642
:1020D00000210189C9B24FF6FF7505EA03251543B2
:1020E00025432943018130BD2DE9F04105460E46C7
:1020F00017469846002443463A4631462846FFF79D
:10210000E5FF2C894FF6F870044044F007044FF6C1
:102110008F70044044F070042C81BDE8F081F0B56C
:1021200004460D4616461F463B4632462946204683
:10213000FFF7CCFF208940F480402081F0BD01856D
:10214000828270470A46002101884FF68F7319403A
:10215000114301807047F0B50C4615461E4600211C
:10216000002200230189028B038C4FF6F877394057
:1021700021434FF6FC473A4040F201173A434FF6ED
:10218000DD773B404FF6FF7707EA06172F433B43C7
:10219000018102830384F0BD0A460021018B4FF6C2
:1021A0008F7319401143018370470A460021018B48
:1021B00048F6FF7319404FF6FF7303EA02231943F1
:1021C000018370470A460021818B4FF68F731940B7
:1021D0001143818370470A460021818B48F6FF73C3
:1021E00019404FF6FF7303EA0223194381837047B6
:1021F00021B1028842F08002028004E002884FF69A
:102200007F731A400280704721B1828842F0040235
:10221000828004E082884FF6FB731A408280704708
:1022200021B1828842F00802828004E082884FF661
:10223000F7731A408280704721B1828842F0010210
:10224000828004E082884FF6FE731A4082807047D5
:102250000A460021018B4FF6F773194011430183A1
:1022600070470A460021018B4FF2FF7319404FF669
:10227000FF7303EA02231943018370470A460021D2
:10228000818B4FF6F77319401143818370470A46DB
:102290000021818B4FF2FF7319404FF6FF7303EA61
:1022A00002231943818370470A460021018B4FF6B0
:1022B000FB7319401143018370470A460021018BCB
:1022C0004FF6FF3319404FF6FF7303EA0223194319
:1022D000018370470A460021818B4FF6FB7319403A
:1022E0001143818370470A460021818B4FF6FF33EB
:1022F00019404FF6FF7303EA0223194381837047A5
:102300000A460021018B4FF67F7319401143018368
:1023100070470A460021018BC1F30E014FF6FF738F
:1023200003EA02231943018370470A460021818B87
:102330004FF67F7319401143818370470A4600218D
:10234000818BC1F30E014FF6FF7303EA0223194399
:10235000818370470A460021018C4FF6FD731940B6
:102360001143018470470A460021018C4FF6F77330
:1023700019401143018470470A460021018C4FF631
:10238000DF7319404FF6FF7303EA02131943018408
:1023900070470A460021018C4FF67F7319404FF6B3
:1023A000FF7303EA02131943018470470A460021B0
:1023B000018C4FF6FF5319404FF6FF7303EA0223D7
:1023C0001943018470470A460021018C4FF2FF73C4
:1023D00019404FF6FF7303EA022319430184704743
:1023E0000A460021018C4DF6FF7319404FF6FF732A
:1023F00003EA023319430184704730B500230124F6
:102400008C40A3B2048C9C430484048C02FA01F532
:10241000ADB22C43048430BD30B5002304248C407D
:10242000A3B2048C9C430484048C02FA01F5ADB27F
:102430002C43048430BD70B50346002000241846A8
:10244000183001258D40ACB21D8CA5431D8409B107
:10245000082909D100EB6100056825F070050560C9
:102460000568154305600EE00D1FC5F34E052844B1
:10247000056825F4E045056005684FF6FF7606EA35
:1024800002263543056070BD21B1028842F0020288
:10249000028004E002884FF6FD731A400280704704
:1024A00021B1028842F00402028004E002884FF663
:1024B000FB731A400280704721B1828842F080028B
:1024C000828004E082884FF67F731A4082807047D2
:1024D00002884FF6F7731A40028002880A4302808E
:1024E000704782884FF68F731A40828082880A4331
:1024F0008280704702894FF6F8731A400281028980
:102500000A430281704702894FF67F731A400281A5
:1025100002890A4302817047818470478185704730
:10252000818670470187704781877047A0F8401007
:10253000704702884FF6FF431A40028002880A4320
:10254000028070470146888E70470146088F7047A9
:102550000146888F70470146B1F840007047014638
:10256000888C70470146088D704702460020138A08
:102570000B400BB1012000E000207047CA430282EB
:10258000704730B50246002000230024158A05EA72
:102590000103958905EA010413B10CB1012000E0A3
:1025A000002030BDCA4302827047000010B50446C7
:1025B000FB48844209D101218803FEF711FF002165
:1025C0004FF48040FEF70CFF32E0F648844209D118
:1025D00001214804FEF711FF00214FF40030FEF7FF
:1025E0000CFF25E0F048844209D101218804FEF760
:1025F00004FF00214FF48020FEF7FFFE18E0EB48B7
:10260000844209D10121C804FEF7F7FE00214FF4EE
:102610000020FEF7F2FE0BE0E548844208D10121DC
:102620000805FEF7EAFE00214FF48010FEF7E5FEF4
:1026300010BD2DE9F04786B005460E460024A2469F
:1026400000BFA1460027B08900B100BF2F462C8AE9
:102650004CF6FF700440F08804432C82AC894EF69F
:10266000F3100440B088318908437189084304435A
:10267000AC81AC8A4FF6FF400440B0890443AC8281
:1026800001A8FEF726FEC648874202D1DDF810A059
:1026900001E0DDF80CA0A88900F4004040B10AEB8D
:1026A000CA0000EB0A1031684900B0FBF1F807E0FE
:1026B0000AEBCA0000EB0A1031688900B0FBF1F8A0
:1026C0006420B8FBF0F004012009642101FB1089AB
:1026D000A88900F4004040B1322000EBC900B0FBF3
:1026E000F1F000F00700044308E0322000EB09108D
:1026F0006421B0FBF1F000F00F0004432C8106B020
:10270000BDE8F0874FF41651016000218180C1803F
:1027100001810C21418100218181704710B5024661
:102720000020108A4FF2FF0318400B884C88234387
:102730008C882343CC8823431843108210BD00218A
:10274000018041808180C180704721B1828942F43B
:102750000052828104E082894DF6FF731A40828123
:102760007047F0B50346002400260025002040F6FF
:102770006A17B94200D100BF1846C1F3421401F0F4
:102780001F06012707FA06F5012C01D10C3004E0E1
:10279000022C01D1103000E014301AB107682F4329
:1027A000076002E00768AF430760F0BD1AB1838A93
:1027B0000B43838202E0838A8B4383827047028AC1
:1027C0004FF6F0731A400282028A0A43028270476F
:1027D00082894FF2FF731A40828182890A43828183
:1027E000704721B1828942F00202828104E082892D
:1027F0004FF6FD731A4082817047028A4FF6DF73ED
:102800001A400282028A0A430282704721B1028A78
:1028100042F48042028204E0028A4BF6FF731A40BF
:1028200002827047C1F3080282807047014688889F
:10283000C0F308007047818941F001018181704730
:10284000028BD2B20283028B42EA012202837047DA
:10285000028B02F47F420283028B0A430283704799
:1028600021B1828A42F02002828204E0828A4FF6FD
:10287000DF731A408282704721B1828A42F01002CF
:10288000828204E0828A4FF6EF731A408282704798
:1028900021B1828A42F00802828204E0828A4FF6E5
:1028A000F7731A408282704721B1828942F4004254
:1028B000828103E08289C2F30E028281704721B1D6
:1028C000828A42F40062828204E0828A4FF2FF73BD
:1028D0001A4082827047828A4FF6FB731A408282C6
:1028E000828A0A438282704721B1828A42F00202C0
:1028F000828204E0828A4FF6FD731A40828270471A
:1029000002460020B1F5007F00D100BF13880B40C4
:102910000BB1012000E00020704701F40072B2F515
:10292000007F00D100BFCA430280704770B50246E5
:10293000002400230025002040F66A16B14200D191
:1029400000BFC1F3421501F01F03012606FA03F38D
:10295000012D02D19689334006E0022D02D1168A5C
:10296000334001E0968A33400C12012606FA04F443
:102970001688344013B10CB1012000E0002070BD76
:1029800010B50022002340F66A14A14200D100BF16
:102990000A1201249440A3B2DC43048010BD00005D
:1029A000003801400044004000480040004C004016
:1029B0000050004003F04FFC03F0B7FB03F0C4FBF2
:1029C00003F090FA03F096FA41A005F0B5FD03F08C
:1029D000B8FA46A005F0B0FD05F07EF8012802D057
:1029E00049A005F0A9FD71E0002054490870544841
:1029F000006803F0D2FA37E05248008805F02AFB5D
:102A000082464FF08B4105F075FA814605F027FBB1
:102A100007464FF066324C4B05F0AAFA054605F022
:102A200031FB4A4908600846006805F0D7F8484974
:102A30004648006805F042FB16D801214548FEF7DC
:102A400042FA0520444908704FF480714348FEF76C
:102A500038FA434800F0C0F84FF480713F48FEF761
:102A600032FA3F4800F0B8F8344800780028C3D064
:102A700000203249087001213648FEF722FA394811
:102A8000006803F08AFA01210846FEF7D9FAFDF73B
:102A9000DAFB03F0E0FB03F048FB03F055FB03F027
:102AA00021FA05240DE020212A48FEF70CFA2E48D1
:102AB00000F092F820212748FEF703FA2A4800F098
:102AC0008BF82000A4F10104EDD100BF8CE70000D9
:102AD0000D0A0D0ABCB4BDABD4CBD0D05254435F69
:102AE000436F6E6669670D0A000000000D0A0D0A4B
:102AF000205254435F436F6E666967D4CBD0D0CD0C
:102B0000EAB1CF0D0A0000004C6F6767657220695B
:102B10006E6974206661696C65642120436F6E7410
:102B2000696E756520776974686F7574206C6F675E
:102B300067696E672E2E2E0D0A0000003F000020F0
:102B4000280000204000002066660A403000002077
:102B5000CDCC4C3D000C01403E000020000801405F
:102B6000FFFF0F002C000020FFFF0500704700BF93
:102B7000FEE700BFFEE700BFFEE700BFFEE77047CD
:102B800070477047704710B504F065FF10BD10B571
:102B900001210E48FFF7F5FC98B101210B48FFF722
:102BA00001FD0B48007800280BDD09480078401E25
:102BB000074908700846007818B901210548FEF752
:102BC00080F910BD10B503F004FA10BD00100040EC
:102BD0003E000020000C014001B502E00098401EBC
:102BE000009000980028F9D108BD0000002070472F
:102BF00000207047002070470146012011B10129D3
:102C000004D102E020F0010002E001E0012000BF59
:102C100000BF704770B5054625B1012D0BD0022DC0
:102C20000BD109E004F0F8F908B1012401E024F027
:102C30000104204670BD00E000BF00BF0120F9E79D
:102C40002DE9F047ADF5007D07460C4615461E46BA
:102C50004FF004094FF0000A17B1012F44D142E0B0
:102C600004F0030000B34FF0000813E02A466D1C87
:102C7000012369460020FFF7E3FF8046B8F1000F0B
:102C800000D00BE04FF400726946204605F019F9B8
:102C900004F500743000A6F10106E7D100BF4046FC
:102CA0000DF5007DBDE8F0874648B0F8500080B2D1
:102CB000CDE900064348006D00FB05F10A460023FC
:102CC000204604F092FB04F014FC824600BF04F09E
:102CD0000CFA0028FBD1BAF1000F01D1814601E0C6
:102CE0004FF0010903E002E04FF0040900BF00BF0C
:102CF0004846D5E72DE9FC4706460F4690461C4658
:102D00004FF0040914B90420BDE8FC8716B1012E68
:102D10001ED11CE02B48B0F8500080B2CDE9000471
:102D20002848006D00FB08F10A460023384604F0ED
:102D30005CFC04F0F6FC054600BF04F0D6F9002860
:102D4000FBD10DB9814601E04FF0010903E002E03B
:102D50004FF0040900BF00BF4846D5E72DE9F04712
:102D600005460E4614464FF0040915B1012D20D139
:102D70001EE0012E04D0022E0ED0032E14D110E03E
:102D80001048D0F850C062460023D0E9127138468E
:102D900005F066F8206007E00A48B0F8500020808F
:102DA00002E00120206000BF00BF4FF0000903E0F7
:102DB00002E04FF0040900BF00BF4846BDE8F087BD
:102DC00001487047980200200000214670B5034674
:102DD0000C4603E014F8015B03F8015B1500A2F157
:102DE0000102F7D170BD30B5034601E003F8011BC5
:102DF0001400A2F10102F9D130BDF0B503461C4622
:102E00000D46002000BF1600A2F1010207D014F801
:102E1000017B15F801CBA7EB0C063000F3D0F0BD19
:102E2000024600E0521C107810B110788842F9D1A7
:102E3000107870472DE9F041044600272079F8B159
:102E4000E56A607801232A4604F13001FFF752FF5A
:102E500008B1012714E000202071206A281AA16916
:102E600088420DD2E67809E0A06905446078012324
:102E70002A4604F13001FFF73DFF761E022EF3D201
:102E80003846BDE8F08170B504460D460026E06A7C
:102E9000A84210D02046FFF7CDFF06465EB9607805
:102EA00001232A4604F13001FFF7CAFE10B14FF0AA
:102EB000FF350126E562304670BD70B504462046F8
:102EC000FFF7B8FF0546002D59D1207803284FD1D0
:102ED000607901284CD16289002104F13000FFF7AC
:102EE00082FF552184F82E12AA2184F82F12522035
:102EF00084F83000522131200155612132200155E2
:102F0000412133200155722184F8141284F81512DE
:102F1000412184F81612612184F81712217C84F86B
:102F20001812208A010A84F819122069010C84F809
:102F30001A122069010E84F81B12217B84F81C12DE
:102F4000A089010A84F81D12E068010C84F81E12A1
:102F5000E068010E84F81F12E069401CE0626078AE
:102F6000012304F13001E26AFFF7C4FE0020607122
:102F7000607800221146FFF7F1FE00B101252846D6
:102F800070BD0246891E5069801E884201D800200B
:102F900070479378906A01FB0300F9E72DE9F05F31
:102FA00004460D46022D02D36069A84202D84FF0B4
:102FB00001098FE04FF0FF392078012804D0022862
:102FC0003CD003287ED157E02F4607EB5707608996
:102FD000B7FBF0F0216A00EB010A51462046FFF7EB
:102FE00052FF00B175E038467F1C6189B0FBF1F2F9
:102FF00001FB120104F1300010F801806089B7FB79
:10300000F0F0216A00EB010A51462046FFF73BFF32
:1030100000B15EE06089B7FBF0F100FB117104F1D3
:103020003000405C48EA002805F0010010B14FEA8A
:10303000181001E0C8F30B0081464AE0B4F80AA07A
:103040000AEBDA704010B5FBF0F0216A00EB010BDF
:1030500059462046FFF717FF00B13AE06800618942
:10306000B0FBF1F201FB120104F130000E183078D0
:10307000717840EA01292CE0B4F80AA04FEAEA701E
:103080000AEB90708010B5FBF0F0216A00EB010BA9
:1030900059462046FFF7F7FE00B11AE0A800618903
:1030A000B0FBF1F201FB120104F130000E18F078D0
:1030B0000006B17840EA0140717840EA0120317899
:1030C000084300E002E020F0704902E04FF00109FF
:1030D00000BF00BF4846BDE8F09F2DE9F05F044601
:1030E0000E461746022E02D36069B04202D84FF056
:1030F0000208B3E02078012804D0022852D0032827
:1031000072D172E0B14609EB59096089B9FBF0F060
:10311000216A00EB010A51462046FFF7B4FE8046C3
:10312000B8F1000F00D098E0484609F10109618923
:10313000B0FBF1F201FB120104F130000D1806F0B2
:10314000010020B1F9B2287861F31F1000E0384681
:103150002870012020716089B9FBF0F0216A00EB32
:10316000010A51462046FFF78EFE8046B8F1000F57
:1031700000D072E06089B9FBF0F100FB119104F11D
:1031800030000D1806F0010010B1C7F3071005E07C
:10319000287800F0F000C7F30321084328700120CD
:1031A00020715AE0B4F80AA00AEBDA704010B6FBBE
:1031B000F0F0216A00EB010B59462046FFF763FE51
:1031C0008046B8F1000F00D047E070006189B0FB85
:1031D000F1F201FB120104F130000D182F70380AD2
:1031E00068700120207138E034E0B4F80AA04FEA9A
:1031F000EA700AEB90708010B6FBF0F0216A00EBE9
:10320000010B59462046FFF73EFE8046B8F1000FFD
:1032100000D022E0B0006189B0FBF1F201FB1201A5
:1032200004F130000D18E8780006A97840EA014062
:10323000697840EA01202978084300F0704007438C
:103240002F70380A6870380CA870380EE8700120AA
:10325000207102E04FF0020800BF00BF4046BDE809
:10326000F09F2DE9F04104460E46022E02D360691C
:10327000B04201D8022727E0002721E0314620464E
:10328000FFF78CFE054605B91DE0012D01D102278F
:1032900019E0681C08B9012715E0002231462046D4
:1032A000FFF71BFF074607B10DE02069401C30B156
:1032B0002069401C2061607940F0010060712E4659
:1032C0006069B042DAD800BF3846BDE8F0812DE928
:1032D000F04704468946B9F1000F06D1E76817B1F7
:1032E0006069B84215D8012713E049462046FFF728
:1032F00055FE0646022E02D20120BDE8F087701C62
:1033000008B93046F9E76069B04201D93046F4E7C0
:103310004F463D4600BF6D1C6069A84204D8022597
:10332000BD4201D90020E8E729462046FFF736FED6
:10333000064606B909E0701C08B1012E01D13046DD
:10334000DBE7BD42E7D10020D7E700BF6FF0704256
:1033500029462046FFF7C1FE8046B8F1000F08D18C
:10336000B9F1000F05D02A4649462046FFF7B5FEC1
:103370008046B8F1000F0BD1E5602069401C78B1A0
:103380002069401E2061607940F00100607107E013
:10339000B8F1010F02D14FF0FF3000E001200546E7
:1033A0002846AAE72DE9F04104460E46E680A568C6
:1033B000012D03D020684069A84202D80220BDE850
:1033C000F0812DB920680078032801D12068456A72
:1033D00045B920680089B04201D80220EFE7206893
:1033E000476A24E021684889C11700EBD16149117F
:1033F0002268927801FB02F812E029462068FFF764
:10340000CDFD0546681C08B90120D8E7022D03D37D
:1034100020684069A84201D80220D0E7A6EB080640
:103420004645EAD229462068FFF7ABFD0746E5602E
:103430000FB90220C3E721684889C11700EBD161A9
:103440004911B6FBF1F13944216121684889C1175E
:1034500000EBD1614911B6FBF1F201FB1261226868
:10346000303202EB411161610020A8E72DE9F04103
:1034700004468846E088461CB0B208B1206910B9FD
:103480000420BDE8F08121684889C11700EBD161B3
:103490004911B6FBF1F201FB1261002971D12069DB
:1034A000401C2061E06828B920680089B04268D8D3
:1034B0000420E6E721684889C11700EBD161491172
:1034C000B6FBF1F122689278521E1140002958D1C2
:1034D000E1682068FFF762FD0546012D01D8022052
:1034E000CFE7681C08B90120CBE720684069A842F3
:1034F00041D8B8F1000F01D10420C2E7E16820688B
:10350000FFF7E5FE05460DB90720BAE7012D01D109
:103510000220B6E7681C08B90120B2E72068FFF76F
:1035200089FC08B10120ACE721684A8901F130002B
:103530000021FFF758FC29462068FFF722FD21688B
:10354000C86200270EE00120216808712068FFF79B
:1035500071FC08B1012094E72068C06A401C216812
:10356000C8627F1C20688078B842ECD82068C06AA6
:10357000C01B2168C862E56029462068FFF701FD8D
:103580002061E68021684889C11700EBD1614911AB
:10359000B6FBF1F201FB12612268303202EB4111FD
:1035A000616100206DE72DE9F04104460E460021DF
:1035B0002046FFF7F7FE0546EDB9002700BF216959
:1035C0002068FFF760FC054605B113E060690078EC
:1035D000E52802D06069007820B9781C0746B0421F
:1035E00001D107E0002701212046FFF73FFF0546F4
:1035F000002DE4D000BF042D00D107252846BDE8EA
:10360000F08110B502468C7ECB7E44EA032013780D
:10361000032B05D10C7D4B7D44EA032340EA034094
:1036200010BD81760B0AC3760A0C02750B0E43752A
:1036300070472DE9F04780460C46A17EE07E41EAC6
:10364000002010B10020BDE8F087207800F03F0096
:10365000401E00EB800101EBC0064FF00109002580
:1036600024E0F848405D205CF649495D21444978F2
:1036700040EA0127B9F1000F11D0FF2E0BD23846D6
:1036800002F0CBFB82463146761C38F8110002F07E
:10369000C4FB824501D00020D5E7B94605E04FF6CE
:1036A000FF70874201D00020CDE76D1C0D2DD8D3CF
:1036B000207800F0400038B1B9F1000F04D038F89C
:1036C000160008B10020BEE70120BCE7F0B50446B3
:1036D0008F7EC87E47EA002008B10020F0BD087840
:1036E00000F03F00401E00EB800707EBC002012600
:1036F00000231AE0D348C05C085CD24FFF5C0F4443
:103700007F7840EA07254EB1FF2A01D30020E5E784
:103710002E461046521C24F8105005E04FF6FF705C
:10372000854201D00020D9E75B1C0D2BE2D308783D
:1037300000F0400030B1FF2A01D30020CEE7002086
:1037400024F812000120C9E7F0B504461D464D7368
:103750000F27CF7200270F738F76BC4681F81BC0EE
:10376000571E07EB870C0CEBC706002738463B4675
:1037700000BF4FF6FF77B84203D03746761C34F8C7
:103780001700DFF8C0C21CF803C001F80C000712D4
:10379000DFF8B0C21CF803C08C448CF8017008B983
:1037A0004FF6FF705F1C3B460D2FE2D34FF6FF77BD
:1037B000B84202D034F816700FB942F040020A70D5
:1037C000F0BD2DE9FF4F83B0814690461D460B2288
:1037D00048460499FFF7FAFA052D18D92F4611E04B
:1037E00038F802BB00240BE0584667F35F00074639
:1037F0004FEA6B0B07F4803008B193484740641CD4
:10380000102CF1D3B8F800000028E9D13D46072478
:1038100000BF05F00F0000F1300ABAF1390F03DDE7
:103820000AF1070000F0FF0A2046641E01A901F812
:1038300000A02D09002DECD17E200855002600E0C7
:10384000761CA64203D219F806002028F8D100BF42
:10385000082C04D22046641C01A9085C00E020204A
:103860003146761C09F80100082EF1D307B0BDE8F7
:10387000F08F30B5014600200B2200BF431003EB50
:10388000C01411F8015B6319D8B2531E1A00F5D1A8
:1038900030BD2DE9F047044600212046FFF782FDA8
:1038A000074617B13846BDE8F0874FF0FF09CA4612
:1038B0004FF6FF70208400BF21692068FFF7E3FA0C
:1038C000074607B157E065692E780EB9042752E024
:1038D000E87A00F03F08E52E05D008F0080040B176
:1038E000B8F10F0F05D04FF0FF094FF6FF7020849D
:1038F0003AE0B8F10F0F1CD1E06978B306F0400050
:1039000030B195F80DA026F04006B146E08820843D
:103910004E450AD1687B504507D12946E069FFF73B
:1039200088FE10B1A9F1010000E0FF2000F0FF09BE
:103930001AE0B9F1000F05D12846FFF79AFF50456C
:1039400000D118E0A069C07A00F0010038B90B225C
:103950002846A169FFF751FA08B90CE004E04FF0DE
:10396000FF094FF6FF70208400212046FFF77EFDFF
:103970000746002FA0D000BF384694E72DE9F05F3E
:1039800004468A464FF0FF09CB4604274FE02169E1
:103990002068FFF778FA074607B14BE0666935788B
:1039A0000DB9042746E0F07A00F03F08E52D0AD073
:1039B0002E2D08D028F02000082801D1012000E099
:1039C0000020504502D04FF0FF0929E0B8F10F0F59
:1039D0001AD105F0400030B196F80DB025F0400541
:1039E000A946E08820844D450AD1707B584507D10F
:1039F0003146E069FFF76AFE10B1A9F1010000E06D
:103A0000FF2000F0FF090BE0B9F1000F04D13046B0
:103A1000FFF72FFF584502D04FF6FF70208409E0D2
:103A200000212046FFF722FD074607B102E020698A
:103A30000028ACD100BF0FB1002020613846BDE89E
:103A4000F09F0000BC8E0008211001002DE9FE4F00
:103A50000446D4F81880D4F81C900C2241466846DD
:103A6000FFF7B4F900BF9DF80B0000F0010020B390
:103A7000002088F80B00E06101260CE033464A463E
:103A800069464046FFF79DFE2046FFF702FF0546C8
:103A900005B102E0761C642EF0D300BF642E02D183
:103AA0000720BDE8FE8F042D01D02846F9E79DF8D8
:103AB0000B0088F80B00C4F81C909DF80B0000F078
:103AC000020060B1002600E0761C39F816000028DC
:103AD000FAD106F119000D21B0FBF1F700E0012742
:103AE00039462046FFF75FFD054645BB781E0700B7
:103AF00025D0E088C11B2046FFF754FC0546F5B9E8
:103B0000A069FFF7B6FE824600BF21692068FFF773
:103B1000BAF9054605B111E0FAB253466169E069A8
:103B2000FFF712FE01202168087100212046FFF7EF
:103B30009DFC054615B9781E0700E6D100BFC5B942
:103B400021692068FFF79FF9054695B920220021D9
:103B50006069FFF748F90B22D4E90501FFF736F950
:103B6000A069C07A00F0180061690873012021681B
:103B70000871284695E770B50446E688208C4FF614
:103B8000FF72904201D1304600E0208C0146204671
:103B9000FFF708FC05460DBB00BF21692068FFF751
:103BA00072F9054605B115E0202200216069FFF792
:103BB0001AF9E52061690870012021680871E08820
:103BC000B04200D306E000212046FFF74FFC054637
:103BD000002DE2D000BF042D00D10225284670BD83
:103BE0002DE9F05F80460D4605F10907D8F8100071
:103BF000002843D0D8F81440002626E03046761C32
:103C000014F80090B9F1200F00D11EE0B9F1050FB2
:103C100001D14FF0E509092E02D12E2007F8010B42
:103C2000B9F1410F0EDBB9F15A0F0BDC207B092EE5
:103C300001D3102100E00821084018B109F120004B
:103C400000F0FF0907F8019B00BF0B2ED6D3E07AE6
:103C50002872E07F0106A07F41EA0041607F41EACF
:103C60000020217F08432860217E607E41EA0020F9
:103C7000A880A17DE07D41EA0020E8800020387026
:103C8000A86960B30026AF69D8F8100028B3E869C6
:103C900018B3B8F820004FF6FF7188421DD0D8F84D
:103CA0001CB014E00021504602F094F88246BAF1AC
:103CB000000F01D100260FE000BFE869401EB042AE
:103CC00001D8002608E03046761C07F800A03BF833
:103CD000021B5FEA010AE5D100BF0020B855BDE82C
:103CE000F09F2DE9F34F83B082460498D0F800B0DE
:103CF00001E00BF1010B9BF800002F28F9D09BF895
:103D000000005C28F5D0DAF81C9000252E4600BF94
:103D10003046761C1BF80040202C03DB2F2C01D0F2
:103D20005C2C00D11CE0FF2D03D3062005B0BDE8BC
:103D3000F08FE4B20121204602F04CF804460CB9A1
:103D40000620F3E7802C06DA2146FEA0FFF768F88C
:103D500008B10620EAE728466D1C29F81040D7E78D
:103D600000BF0BEB060104980160202C01DA04204F
:103D700000E00020074608E0681E39F81040202CBB
:103D800002D02E2C00D002E06D1E002DF4D100BF19
:103D90000DB90620CAE7002029F815000B222021C2
:103DA000DAF81800FFF71FF8002600E0761C39F853
:103DB00016002028FAD039F816002E28F6D00EB1B9
:103DC00047F0030700E06D1E25B1681E39F81000AA
:103DD0002E28F8D14FF00008CDF808800820019077
:103DE00000BF3046761C39F8104004B955E0202C4D
:103DF00003D02E2C04D1AE4202D047F00307F0E7E7
:103E0000DDE90110884201D2AE4216D101980B289B
:103E100002D147F0030740E0AE4201D047F003076C
:103E2000AE4200D939E02E46082002900B200190C6
:103E30004FEA88604FEA1068D3E7802C0BDB002143
:103E4000204601F0C7FF04461CB1A4F18000C04920
:103E50000C5C47F0020700BF24B12146BDA0FEF76D
:103E6000DFFF18B15F2447F003070FE0412C04DBAC
:103E70005A2C02DC48F0020808E0612C06DB7A2CA0
:103E800004DC48F00108A4F1200084B2DAF818300C
:103E90000298411C02911C54A3E700BFDAF81800F5
:103EA0000078E52803D10520DAF818100870019889
:103EB000082803D14FEA88604FEA106808F00C0028
:103EC0000C2803D008F00300032801D147F00207B3
:103ED00007F0020058B908F00300012801D147F0AB
:103EE000100708F00C00042801D147F00807DAF8A1
:103EF0001800C772002019E72DE9F3410446019824
:103F000000782F2803D0019800785C2802D101980E
:103F1000401C01900020A06001980078202807D262
:103F200000212046FFF73EFA05460020606128E0A8
:103F300000BF01A92046FFF7D4FE054605B11FE0EA
:103F40002046FFF7A6FC0546A069C67A3DB1042DC0
:103F500004D100BF06F0040000B9052510E006F00A
:103F6000040000B10CE06769F87A00F0100008B9AD
:103F7000052505E039462068FFF743FBA060D8E738
:103F800000BF2846BDE8FC8170B502464FF0FF3007
:103F90001568E5B1116800E0491C0D78202D02D3A9
:103FA0000D783A2DF8D10D783A2D0FD1146814F808
:103FB000015BA5F130030A2B07D28C4205D1022BFD
:103FC00003D218464D1C2946156070BD002000BF65
:103FD000FBE770B504460D4600202071401EE062EC
:103FE00029462046FEF74FFF08B1032070BD94F824
:103FF0002E1294F82F0241EA00204AF655218842F9
:1040000001D00220F2E794F86900010694F86800F4
:1040100041EA004194F8670041EA002094F86610F4
:10402000084320F07F404D49884201D10020DDE760
:1040300094F88500010694F8840041EA004194F860
:10404000830041EA002094F88210084320F07F406A
:104050004249884201D10020C8E70120C6E72DE986
:10406000F74F8AB000210A9801600B98FFF78CFF88
:1040700009900998002803DA0B200DB0BDE8F08FF5
:104080003749099851F820400CB90C20F5E70A98F7
:104090000460207878B16078FEF7AEFD814609F0C3
:1040A000010040B90C9820B109F0040008B10A20C1
:1040B000E3E70020E1E70020207009986070607855
:1040C000FEF7A8FD814609F0010008B10320D4E7FE
:1040D0000C9820B109F0040008B10A20CDE76078FF
:1040E00004F10A020221FEF739FE38B96089B0F501
:1040F000007F03DB6089B0F5805F01DD0120BCE754
:10410000002718A004F018FA39462046FFF761FF8F
:10411000054619A004F010FA012D01D08DB959E01F
:10412000002641E004F5F77000EB061898F804004B
:1041300060B398F80B00010698F80A0041EA0041C4
:1041400025E047E0222A3A3C3E3F7C7F0000000009
:104150003C8E00082B2C3B3D5B5D0000464154002B
:10416000340000200D0A0D0A20202020303131209B
:1041700020202020200D0A000D0A0D0A20202020DA
:104180003031322020202020200D0A0007E098F84E
:10419000090041EA002098F80810084300E00020D8
:1041A00002A941F82600761C042EBBD3002606B1D6
:1041B000761E00BF02A850F8267027B13946204667
:1041C000FFF707FF00E0022005461DB1701C064600
:1041D0000428EFD3032D01D101204EE70DB10D20AE
:1041E0004BE73B20015D94F83C0041EA00206189E7
:1041F000884201D00D2040E74620015D94F8470039
:1042000041EA002ABAF1000F0ED194F857000106D6
:1042100094F8560041EA004194F8550041EA002024
:1042200094F8541040EA010AC4F818A04020005D38
:10423000E070E078012804D0E078022801D00D2059
:104240001BE7E0780AFB00FA3D20005DA070A07833
:1042500018B1A078411E084008B10D200DE741209B
:10426000015D94F8420041EA002020816089C11775
:1042700000EBD1614911228992FBF1F301FB13217B
:1042800009B10D20F9E64320015D94F8440041EAAC
:1042900000200890089870B994F85300010694F82B
:1042A000520041EA004194F8510041EA002094F89C
:1042B0005010084308903E20015D94F83F0041EA09
:1042C00000200190019808B90D20D6E66089C11739
:1042D00000EBD1614911228992FBF1F2019951441D
:1042E00011440791DDE90710884201D20D20C4E690
:1042F000DDE90710401AA178B0FBF1FBBBF1000F1C
:1043000001D10D20B9E6012540F6F670834500D3B2
:1043100002254FF6F670834500D303250BF102000A
:104320006061E76101983844206207983844A062D0
:10433000032D16D1208908B10D209EE694F85F0068
:10434000010694F85E0041EA004194F85D0041EAFC
:10435000002094F85C100843606260698000069059
:1043600014E0208908B90D2087E6206A5044606275
:10437000022D02D16069400007E0207D00F00100BD
:10438000616901EB410100EB510006906089401E1C
:10439000069908446189B0FBF1F0A169884201D90E
:1043A0000D206AE64FF0FF302061E06080206071F0
:1043B000032D5AD194F8601094F8610041EA00206E
:1043C000012852D1791C2046FEF75DFDE8BB002094
:1043D000607194F82E1294F82F0241EA00204AF6F8
:1043E0005521884241D13320005D01063220005D15
:1043F00041EA00413120005D41EA002094F830108C
:104400000843F749884230D194F81702010694F81E
:10441000160241EA004194F8150241EA002094F89E
:1044200014120843EF4988421FD194F81B02010679
:1044300094F81A0241EA004194F8190241EA002076
:1044400094F818120843206100E00EE094F81F026F
:10445000010694F81E0241EA004194F81D0241EA67
:10446000002094F81C120843E0602570DE480088A4
:10447000401C80B2DC490880E0800020FDE570B57A
:1044800005462C4684B1206870B12068007858B188
:104490002068C088A188884206D121684878FEF744
:1044A000ABFB00F0010008B1092070BD0020FCE763
:1044B000F7B582B016460398019001A8FFF764FD96
:1044C0000546002D02DA0B2005B0F0BDC74850F8B4
:1044D00025400CB100202070029810B100200299F4
:1044E0000870C249029841F82500029808B1012ECF
:1044F00001D00020E8E7BEA004F01EF8002203A9C6
:1045000002A8FFF7ACFD0746BEA004F015F8384638
:10451000DAE72DE9F7438CB0054616461DB90920A8
:104520000FB0BDE8F0830020286006F01F0626F0DB
:1045300001020DA903A8FFF792FD0746002F74D1D1
:10454000CDF824D0B4480A9003A80D99FFF7D4FC05
:104550000746089C0FB904B9062706F01C0000287E
:104560005CD04FB1042F03D103A8FFF76FFA0746C1
:1045700046F00806089C09E0E07A00F0110008B156
:10458000072703E006F0040000B10827002F55D1EB
:1045900006F00800002851D0FEF712FC804684F88F
:1045A0000E804FEA1821E1734FEA184121744FEA57
:1045B0001861617484F816804FEA1821E1754FEA9A
:1045C000184121764FEA186161760020E072207769
:1045D00000216177A177E17721460398FFF711F871
:1045E000814600212046FFF71CF80120039908713D
:1045F000B9F1000F22D00398D0F82C8049460398D7
:10460000FEF72FFE0746CFB9A9F101000399C86054
:1046100041460398FEF737FC07460FE077B9E07A8A
:1046200000F0100010B1042708E02DE006F00200B1
:1046300020B1E07A00F0010000B1072747B906F089
:10464000080008B146F020060398C06AE8612C62B1
:10465000D7B9AE710020E87121460398FEF7D1FF6B
:104660002861E07F0106A07F41EA0041607F41EAC6
:104670000020217F0843E8600020A860A86103981B
:1046800028602868C088A880384649E72DE9FF4F90
:1046900085B0044615469A46DDF818B00020CAF8E1
:1046A00000002046FFF7EBFE0490049818B1049830
:1046B00009B0BDE8F08FE07908B1E079F8E7A079BA
:1046C00000F0010008B90720F2E7D4E90210401A0F
:1046D00002900298854200D9029DD9E0216849895B
:1046E000A068B0FBF1F201FB1200002877D121682D
:1046F0004989A068B0FBF1F021688978491E08401B
:1047000000F0FF09B9F1000F17D1A06810B92069B6
:10471000039004E061692068FEF740FC0390039871
:10472000022802D20220E071C2E70398401C10B9AF
:104730000120E071BCE70398606161692068FEF7C1
:1047400020FC064616B90220E071B1E74E4420680D
:104750004089B5FBF0F8B8F1000F2DD009EB080047
:1047600021688978884203D920688078A0EB0908FD
:1047700021684878434632465946FEF761FA10B13F
:104780000120E07194E7A07900F0400078B1A069C1
:10479000801B40450BD2A169891B23685B8901FB03
:1047A00003B021684A8904F12401FEF70FFB206859
:1047B000408900FB08F761E0A069B0423FD0A079D2
:1047C00000F0400050B321684878012304F124012F
:1047D000A269FEF78FFA10B30120E07168E72FE0BD
:1047E00052526141727241613C000020340000204D
:1047F0000D0A0D0A20202020312020202020200D0D
:104800000A0000000D0A0D0A20202020322020205E
:104810002020200D0A0000006800002003E0A0799D
:1048200020F04000A071216848780123324604F14D
:104830002401FEF705FA10B10120E07138E7A66106
:1048400021684989A068B0FBF1F201FB12002168E0
:1048500049890F1AAF4200D92F4621684989A068BB
:10486000B0FBF1F201FB120104F1240008443A46C6
:10487000014601905846FEF7A9FA00BFBB44A06864
:104880003844A060DAF800003844CAF80000ED1B94
:10489000002D7FF423AF00200AE72DE9FF4F83B0FE
:1048A000044615469B46049801900020CBF8000072
:1048B0002046FFF7E4FD0290029818B1029807B075
:1048C000BDE8F08FE07908B1E079F8E7A07900F071
:1048D000020008B90720F2E7A0682844A1688842CE
:1048E00000D20025CFE021684989A068B0FBF1F231
:1048F00001FB120000287DD121684989A068B0FB26
:10490000F1F021688978491E084000F0FF0ABAF1E9
:10491000000F1ED1A06838B9276957B90021206857
:10492000FEF7D5FC074604E061692068FEF7CFFC7E
:10493000074607B9AAE0012F02D10220E071BEE7C5
:10494000781C10B90120E071B9E76761206900B9EE
:104950002761A07900F0400078B1216848780123F0
:1049600004F12401A269FEF7C5F910B10120E0713C
:10497000A5E7A07920F04000A07161692068FEF7EA
:1049800000FB064616B90220E07198E756442068FD
:104990004089B5FBF0F9B9F1000F31D00AEB0900FD
:1049A00021688978884203D920688078A0EB0A09B9
:1049B000216848784B4632460199FEF79BF910B1C1
:1049C0000120E0717BE7A069801B484511D2A069F6
:1049D000831B2068B0F80AC0019803FB0C01206813
:1049E000428904F12400FEF7F1F9A07920F040009B
:1049F000A07100E018E02068408900FB09F835E06C
:104A0000A069B0420FD0D4E9020188420BD22168DC
:104A100048780123324604F12401FEF711F910B160
:104A20000120E0714BE7A66121684989A068B0FBCD
:104A3000F1F201FB120021684989A1EB0008A845A9
:104A400000D9A84621684989A068B0FBF1F201FBB2
:104A5000120104F124000844424600900199FEF737
:104A6000B5F9A07940F04000A07100BF0198404422
:104A70000190A0684044A060DBF800004044CBF8FF
:104A80000000A5EB0805002D7FF42DAF00BFD4E991
:104A90000201884201D9A068E060A07940F02000BE
:104AA000A07100200BE72DE9F04104462046FFF7F6
:104AB000E6FC0746002F4CD1A07900F0200000282A
:104AC00047D0A07900F0400078B1216848780123F0
:104AD00004F12401A269FEF70DF910B10120BDE82F
:104AE000F081A07920F04000A071E1692068FEF714
:104AF000CAF90746002F2CD1256AE87A40F0200039
:104B0000E872207B2877A089010A6977E068010CA8
:104B1000A977E068010EE97728462169FEF781FD53
:104B2000FEF74EF90646AE75310AE975310C297665
:104B3000310E69760020A8740021E974A07920F074
:104B40002000A0710120216808712068FEF7B5F9E6
:104B500007463846C3E770B505462846FFF7A3FF6A
:104B6000044634B92846FFF78AFC04460CB90020F5
:104B70002860204670BD2DE9F04704460E462046C9
:104B8000FFF77DFC8246BAF1000F02D05046BDE827
:104B9000F087E07908B1E079F9E7E068B04204D243
:104BA000A07900F0020000B9E668D4F808904FF050
:104BB0000008C4F80880002E71D020688078216831
:104BC000498900FB01F7B9F1000F11D0701EB0FB4D
:104BD000F7F1A9F10100B0FBF7F0814208D3A9F188
:104BE0000100791E8843A060A068361A656912E04A
:104BF00025697DB900212068FEF769FB0546012D76
:104C000002D10220E071C2E7681C10B90120E071F6
:104C1000BDE725616561002D41D023E0A07900F05A
:104C2000020038B129462068FEF751FB054635B928
:104C30003E4619E029462068FEF7B0F90546681C93
:104C400010B90120E071A2E7012D03D92068406965
:104C5000A84202D80220E07199E76561A068384453
:104C6000A060F61BBE42D9D800BFA0683044A06047
:104C700020684089B6FBF0F100FB116078B129464D
:104C80002068FEF77EF98046B8F1000F02D10220BD
:104C9000E0717CE720684089B6FBF0F08044216831
:104CA0004989A068B0FBF1F201FB120020B3A069B2
:104CB000404521D0A07900F0400078B121684878C3
:104CC000012304F12401A269FEF714F810B10120B8
:104CD000E0715CE7A07920F04000A071216848787D
:104CE0000123424604F12401FDF7AAFF10B101207F
:104CF000E0714CE7C4F81880D4E90201884205D974
:104D0000A068E060A07940F02000A07150463EE726
:104D100033B585B0044614B9092007B030BD002270
:104D200006A904A8FFF79BF905462DBB049820604F
:104D300001A8A061FE48E06120460699FFF7DCF873
:104D40000546B5B9606958B16069C07A00F01000D5
:104D500028B161690498FEF754FCA06000E00525C5
:104D60003DB90498C088A08000212046FEF71AFBB8
:104D70000546042D00D105250DB1002020602846F0
:104D8000CBE770B504462046FFF779FB05460DB921
:104D900000202060284670BDFEB504460E46204621
:104DA000FFF76DFB05461DBB2EB900212046FEF71F
:104DB000F9FA05461CE0C4F818D0DD48E06100218E
:104DC0002046FEF7DBFD0546042D02D100202061C0
:104DD00000256DB931462046FEF702FF002120462E
:104DE000FEF744FB0546042D02D10020206100257A
:104DF0002846FEBD33B58DB00D4600220DA904A88E
:104E0000FFF72DF9044694B901A80A90C8480B9001
:104E100004A80D99FFF770F8044644B9099828B121
:104E20002DB1294604A8FEF7DBFE00E0062420464B
:104E30000FB030BD2DE9F74F82B08A46002202A99B
:104E40000498FFF70CF90190049804680198002871
:104E50006DD1D4E90410801E814203D82069CAF8BC
:104E6000000064E094F800B00026BBF1010F1CD1F3
:104E7000022700BF39462046FEF790F8804608F129
:104E8000010010B9012001900EE0B8F1010F02D12C
:104E90000220019008E0B8F1000F00D1761C781CC8
:104EA000074661698842E5D33AE06769206A009065
:104EB0004FF00009002500BFB9F1000F0ED1009896
:104EC000421C014620460092FDF7DDFF019001984B
:104ED00000B124E004F13005B4F80A90BBF1020FF0
:104EE00009D12878697840EA012000B9761CAD1C08
:104EF000A9F1020910E0E8780006A97840EA01402B
:104F0000697840EA01202978084320F0704000B910
:104F1000761C2D1DA9F10409781E0700CCD100BF15
:104F20002661607940F001006071CAF80060019864
:104F300005B0BDE8F08F70B504462046FFF79FFA34
:104F4000054645B9E07908B1E57904E0A07900F0BB
:104F5000020000B90725002D47D1D4E9021088428C
:104F600041D9A068E060A07940F02000A071A0685D
:104F700038B921692068FEF774F9054600202061E0
:104F80001DE061692068FEF709F806460025701CDF
:104F900000B90125012E00D1022585B9206840699C
:104FA000B0420CD96FF0704261692068FEF795F845
:104FB000054625B931462068FEF753F9054695B9EF
:104FC000A07900F0400070B121684878012304F115
:104FD0002401A269FDF78EFE08B1012503E0A07946
:104FE00020F04000A07105B1E571284670BD71B593
:104FF00095B00026012215A90CA8FFF730F8044649
:10500000002C46D1CDF848D0494813900CA81599EA
:10501000FEF772FF044600BF002C3AD1119D0DB976
:10502000062404E0E87A00F0010000B10724FCB98E
:1050300029460C98FEF7E5FA0646CEB1E87A00F06C
:105040001000A8B124220CA903A8FDF7BFFE059605
:10505000022103A8FEF7A6F904464CB9002103A8D3
:10506000FEF78CFC044604B90724042C00D100246C
:105070007CB90CA8FEF77FFD04462CB926B1314659
:105080000C98FEF7EEF804461CB90C98FDF715FFD6
:105090000446204616B070BD2DE9F1478DB0FDF7EE
:1050A0008FFE064601220DA904A8FEF7D8FF05468B
:1050B000002D72D101A80A901D480B9004A80D99EB
:1050C000FEF71AFF054605B9082500BF042DF0D1EB
:1050D00000210498FEF7FBF80746002507B90725CD
:1050E000012F00D10225781C00B901251DB90498B3
:1050F000FDF7A0FE0546002D5ED139460498FDF768
:1051000040FF8146049800F1300404984289002150
:105110002046FDF768FE0B2220212046FDF763FEA6
:105120002E2020701020E072A675310AE17501E092
:1051300068000020310C2176310E61763946204618
:10514000FEF76FFA2022214604F12000FDF73EFE13
:105150002E2084F82100DDF818A004980078032898
:1051600004D10498406A504500D1AA46514604F142
:105170002000FEF756FA049890F8028018E0049890
:10518000C0F82C9009F101090120049908710498D4
:10519000FDF750FE05460DB10DE02DE00498428963
:1051A00000212046FDF71FFEA8F1010000F0FF08D6
:1051B000B8F1000FE3D100BF1DB904A8FEF746FC0B
:1051C000054625B139460498FEF74BF814E0099CD2
:1051D0001020E072A675310AE175310C2176310E8E
:1051E000617639462046FEF71CFA012004990871C1
:1051F0000498FDF762FE054628460EB0BDE8F0872C
:10520000F7B58CB00F46144601220CA903A8FEF78F
:1052100026FF0646EEB9CDF824D0F8480A9003A838
:105220000C99FEF769FE064600BF96B9089D0DB9B8
:1052300006260EE004F0270407EA0400E97AA143F9
:105240000843E8720120039908710398FDF735FEC1
:10525000064630460FB0F0BDF3B59BB001221BA946
:1052600012A8FEF7FCFE0446002C75D11298099096
:10527000CDF860D0E148199012A81B99FEF73CFECA
:10528000044600BF002C67D1179808B9042463E0D6
:10529000179800F10B01152203A8FDF797FD2422B2
:1052A00012A909A8FDF792FD1CA8FEF76DFE0028C3
:1052B00005DB09A81C99FEF71FFE044600E00B243D
:1052C00004B90824042C47D109A8FEF7BFFB044603
:1052D000002C41D10E9D13220DF10E0105F10D00A0
:1052E000FDF774FD9DF80C0040F02000E8720120ED
:1052F00012990871E87A00F0100018B30B9914980D
:1053000088421FD029461298FEF77BF90746394696
:105310001298FDF736FE06460EB9022412E0314619
:105320001298FDF7B0FD0446129800F150054CB9F3
:1053300068782E2806D128460B99FEF772F90120CD
:105340001299087144B912A8FEF715FC04461CB95D
:105350001298FDF7B2FD044620461DB0F0BD73B5AE
:105360008CB00D4601220CA903A8FEF778FE064674
:10537000FEB9CDF824D0A1480A9003A80C99FEF7F5
:10538000BBFD064600BFA6B9089C0CB9062610E076
:10539000A879A075E8880112E17528792076A88897
:1053A000011261760120039908710398FDF785FDCC
:1053B000064630460EB070BD2DE9F74F90B09146CD
:1053C0001198012803DD132013B0BDE8F08F10A859
:1053D000FEF7DAFD0F900F98002801DA0B20F3E7B3
:1053E00087490F9851F820500DB90C20ECE70020A8
:1053F00028700F98C0B20C9000200B900C98FDF70D
:1054000009FC0190019800F0010008B10320DBE7DE
:10541000019800F0040008B10A20D5E705F10A025E
:1054200002210C98FDF79AFC38B96889B0F5805FC5
:1054300003DC6889B0F5007F01DA0120C4E700BF12
:1054400004AA01210C98FDF789FC10B90498802862
:1054500001D20120B8E7119808B1002000E03F20F8
:1054600082460498A0EB0A000490A9F1010000EA2A
:10547000090008B14FF00009B9F1000F1AD168898D
:10548000C11700EBD15149124FF4FA6292FBF1F1CE
:10549000049AB2FBF1F10A914FF0000B01E00BF11D
:1054A000010B584830F81B100A988142F7D856482B
:1054B00030F81B90B9F5007F02D36889B9FBF0F989
:1054C000B9F1000F01D14FF00109B9F1800F01D9F5
:1054D0004FF080090498B0FBF9F8012640F6F67009
:1054E000804500D302264FF6F670804500D3032690
:1054F000032E0CD1082000EB880069890844401E67
:10550000B0FBF1F7202003900020029019E0012E5B
:1055100005D108EB4800401C4008C01C02E04FEADF
:105520004800001D074668893844401E6989B0FB61
:10553000F1F70120039068894FF48041B1FBF0F04E
:1055400002900398504407900798384406900299B7
:1055500006980844059005984844A0EB0A00049971
:10556000884201D90E202FE709AA03210C98FDF7E4
:10557000F5FB28B9099818B10998B0F5004F01D981
:1055800001200990099905980844401E491E884346
:10559000099009990598081A0990032E08D10999CC
:1055A000039808440390099907980844079001E07C
:1055B00009980744DDE90301081AC11B0298081A7B
:1055C000B0FBF9F8022E03D140F6F670804505D302
:1055D000032E05D14FF6F670804501D20E20F3E67A
:1055E000032E02D10C200D9018E0012E0ED104984C
:1055F000B0F5803F0AD201200D900FE06800002036
:1056000034000020CA8E0008E08E00080498B0F52F
:10561000803F01D2042000E006200D9000BF1198C9
:1056200010B1F0200E9043E06A89002105F13000AE
:10563000FDF7D9FB05F5F77401206070A07000201C
:10564000E0700D982071FE206071049850443F2155
:10565000B0FBF1F0FF21B0FBF1F009903F21099878
:1056600041EA9000A0710998E0713F20207200216A
:105670006172A172E172049820730498010A617347
:105680000498010CA1730498010EE173552185F86B
:105690002E12AA2185F82F120123002205F13001D4
:1056A0000C98FDF727FB08B101208DE6F8200E903D
:1056B00005F130046A8900212046FDF794FB0B2296
:1056C000FEA12046FDF782FBB5F80AB084F80BB0C6
:1056D0004FEA1B21217384F80D900398A07303985F
:1056E000010AE17301202074032E01D1002001E0A2
:1056F0004FF40070834684F811B04FEA1B21A17467
:105700000498B0F5803F05D20498E0740498010A2B
:10571000217510E0049884F820000498C0F3072154
:10572000212001550498C0F3074122200155049817
:10573000010E232001550E9860753F202076002130
:105740006176FF20A076E17684F81CA04FEA1A214A
:1057500061774FEA1A41A1774FEA1A61E177FDF7C5
:105760002FFB0990032E3ED1099884F84300099835
:10577000C0F30721442001550998C0F30741452093
:1057800001550998010E4620015584F82470C7F38D
:10579000072125200155C7F3074126200155390E61
:1057A00027200155022084F82C0000212D200155CE
:1057B0002E2001552F200155012084F83000312082
:1057C0000155062084F8320033200155802084F8EA
:1057D0004000292084F842001322BBA104F14700B5
:1057E000FDF7F4FA1FE0099884F827000998C0F340
:1057F0000721282001550998C0F3074129200155A8
:105800000998010E2A200155A775390AE1758020F3
:1058100084F82400292084F826001322AFA104F183
:105820002B00FDF7D3FA552084F8FE01AA2140F29F
:10583000FF1001550123524621460C98FDF75AFAF4
:1058400008B10120C0E5032E06D101230AF10602AA
:1058500021460C98FDF74EFA079808904FF0000B80
:105860005FE06A8900212046FDF7BDFA0E98099095
:10587000032E14D0012E01D19D4801E06FF0FF00EE
:10588000099908430990099820700998000A6070E6
:105890000998000CA0700998000EE07019E00998B2
:1058A00060F0FF000990099820700998000A607064
:1058B0000998000CA0700998000EE070FF2020717C
:1058C000FF216171A171E17120726172A1720F21DA
:1058D000E1720898411C02460123089121460C9868
:1058E000FDF708FA08B101206EE56A89002120461B
:1058F000FDF779FA012009900EE00898411C024654
:105900000123089121460C98FDF7F4F908B1012014
:105910005AE50998401C09900998B842EDD30BF15B
:10592000010BBBF1000F9CD0032E01D1484600E0D3
:105930000298834600BF0898411C02460123089143
:1059400021460C98FDF7D6F908B101203CE5ABF1F2
:1059500001005FEA000BEED1032E49D152202070E6
:1059600060706120A0704120E070722084F8E40132
:10597000722140F2E51001554121401C0155612181
:10598000401C0155A8F1010084F8E801C0F307218B
:1059900040F2E9100155A8F10100C0F307414FF4AE
:1059A000F5700155A8F10100010E40F2EB10015510
:1059B000022084F8EC01002140F2ED100155401C5A
:1059C0000155401C0155552084F8FE01AA2140F2E2
:1059D000FF10015501230AF1010221460C98FDF741
:1059E00089F901230AF1070221460C98FDF782F993
:1059F000002211460C98FDF7B1F908B10120E3E44B
:105A00000020E1E42DE9FC47074688469146002442
:105A10003E4613E06B46012201A94846FEF736FEDA
:105A20000098012800D00DE09DF8045000BF06F852
:105A3000015B641C0A2D00D104E000BFA8F1010045
:105A4000A042E7DC00BF0020307014B13846BDE84A
:105A5000FC870020FBE7F8B504460E4600BF6568EA
:105A6000002D00DAF8BD28466D1C04F10C010E541F
:105A70003D2D0CDB6B462A462068FEF70EFF009892
:105A8000A84201D1002001E04FF0FF3005466560DB
:105A9000A068401CA06000BFE4E730B595B00446A4
:105AA0000D460295002003900490214602A8FFF7BE
:105AB000D2FF039800282ADB01AB1BE0EBFE904DE0
:105AC00053444F53352E30004E4F204E414D45200C
:105AD0002020204641543332202020004E4F204EBB
